:040000007EEF0DF092
:10100000003738392F3435362A3132332D23303DED
:101010002B0E0E1F1F1F1F1F000E0A1F1F1F1F1F3B
:10102000000E0A111F1F1F1F000E0A11111F1F1F84
:10103000000E0A1111111F1F000E0A111111111FAC
:0510400000256900001D
:10104600A1EC0DF04F0E246E000E256E010E266EDD
:10105600140E276E390E286E100E296E000E2A6E9B
:101066008BEC0BF05F6E020E306E450E2F6EAA0EE5
:10107600E82EFED72F2EFCD7302EFAD74F0E246E31
:10108600000E256E010E266E140E276E310E286E8A
:10109600100E296E000E2A6E8BEC0BF05F6E020EA0
:1010A600306E450E2F6EAA0EE82EFED72F2EFCD7D9
:1010B600302EFAD74F0E246E000E256E010E266EC8
:1010C600140E276E290E286E100E296E000E2A6E3B
:1010D6008BEC0BF05F6E020E306E450E2F6EAA0E75
:1010E600E82EFED72F2EFCD7302EFAD74F0E246EC1
:1010F600000E256E010E266E140E276E210E286E2A
:10110600100E296E000E2A6E8BEC0BF05F6E020E2F
:10111600306E450E2F6EAA0EE82EFED72F2EFCD768
:10112600302EFAD74F0E246E000E256E010E266E57
:10113600140E276E190E286E100E296E000E2A6EDA
:101146008BEC0BF05F6E020E306E450E2F6EAA0E04
:10115600E82EFED72F2EFCD7302EFAD74F0E246E50
:10116600000E256E010E266E140E276E110E286EC9
:10117600100E296E000E2A6E8BEC0BF05F6E020EBF
:10118600306E450E2F6EAA0EE82EFED72F2EFCD7F8
:10119600302EFAD725EF08F000EF00F0010E096EA9
:1011A60001500210D8B4DAEF08F0DCEF08F0EDEFEA
:1011B60008F001C0D9FF02C0DAFFDF30E832E832BA
:1011C600070B036E070E0364EBEF08F0EDEF08F074
:1011D60050EF09F0000E096E71EF09F001C0D9FF5A
:1011E60002C0DAFFDF30E832E832070B036E010E89
:1011F600046E032A01EF09F0D8900436032EFFEFA0
:1012060008F00450FF0A056E01C0D9FF02C0DAFFDC
:10121600DF50070B066E0650020D450EF324D96EFD
:10122600000EF420DA6EDECF07F0DDCF08F007C03F
:10123600D9FF08C0DAFF0550DF1671EF09F001C0CB
:10124600D9FF02C0DAFFDF30E832E832070B036E5F
:10125600010E046E032A32EF09F0D8900436032EED
:1012660030EF09F001C0D9FF02C0DAFFDF50070BEB
:10127600056E0550020D450EF324D96E000EF420BE
:10128600DA6EDECF06F0DDCF07F006C0D9FF07C065
:10129600DAFF0450DF1271EF09F001C0D9FF02C076
:1012A600DAFFDFBC59EF09F05CEF09F0010E5DEFE4
:1012B60009F0000E036E046A0450000AD8B466EF03
:1012C60009F0EDEF08F00350000AD8B4F1EF08F08A
:1012D600010AD8B422EF09F0EDEF08F00950120028
:1012E600000E1B6E17501810D8A47CEF09F07EEF85
:1012F60009F082EF09F0000E1C6E07EF0AF017C026
:101306000BF018C00CF0A6EC0CF01C6E010E1724A6
:101316000B6E000E18200C6EA6EC0CF01C6E000E68
:101326001B6E1B501724196E000E18201A6E020E23
:1013360019240B6E000E1A200C6EA6EC0CF01B2A5C
:10134600070E1B64A9EF09F0ABEF09F094EF09F063
:101356001A0E196EF80EE82EFED7192EFCD700D0FD
:1013660017C00EF018C00FF0380E106E23EC0CF0FC
:10137600070E196E7D0EE82EFED7192EFCD700F04B
:1013860017C00EF018C00FF0380E106E23EC0CF0DC
:10139600320EE82EFED717C00EF018C00FF0380E2A
:1013A600106E23EC0CF017C00EF018C00FF0010EF3
:1013B600106E23EC0CF017C00EF018C00FF0020EE2
:1013C600106E23EC0CF017C00EF018C00FF0060ECE
:1013D600106E23EC0CF017C00EF018C00FF00C0EB8
:1013E600106E23EC0CF017C00EF018C00FF0380E7C
:1013F600106E23EC0CF017C00EF018C00FF0800E24
:10140600106E23EC0CF01C6E1C501200000E176EB2
:1014160013501410D8A412EF0AF014EF0AF018EFC4
:101426000AF0000E186E9DEF0AF013C00BF014C000
:101436000CF0A6EC0CF0186E010E13240B6E000EC9
:1014460014200C6EA6EC0CF0186E000E176E1750DA
:101456001324156E000E1420166E020E15240B6E44
:10146600000E16200C6EA6EC0CF0172A030E17645D
:101476003FEF0AF041EF0AF02AEF0AF01A0E156E56
:10148600F80EE82EFED7152EFCD700D013C00FF0AD
:1014960014C010F0380E116E6BEC0CF0070E156EC2
:1014A6007D0EE82EFED7152EFCD700F013C00FF0E8
:1014B60014C010F0380E116E6BEC0CF0320EE82EE4
:1014C600FED713C00FF014C010F0380E116E6BEC7F
:1014D6000CF013C00FF014C010F0010E116E6BEC7F
:1014E6000CF013C00FF014C010F0020E116E6BEC6E
:1014F6000CF013C00FF014C010F0060E116E6BEC5A
:101506000CF013C00FF014C010F00C0E116E6BEC43
:101516000CF013C00FF014C010F0280E116E6BEC17
:101526000CF013C00FF014C010F0800E116E6BECAF
:101536000CF0186E18501200010E0A6E01500210BF
:10154600D8B4A8EF0AF0AAEF0AF0BBEF0AF001C080
:10155600D9FF02C0DAFFDF30E832E832070B046E4B
:10156600070E0464B9EF0AF0BBEF0AF01EEF0BF0AA
:10157600000E0A6E33EF0BF001C0D9FF02C0DAFF8E
:10158600DF30E832E832070B046E010E056E042ADE
:10159600CFEF0AF0D8900536042ECDEF0AF00550AD
:1015A600FF0A066E01C0D9FF02C0DAFFDF50070B43
:1015B600076E0750020D3B0EF324D96E000EF42081
:1015C600DA6EDECF08F0DDCF09F008C0D9FF09C01A
:1015D600DAFF0650DF1633EF0BF001C0D9FF02C069
:1015E600DAFFDF30E832E832070B046E010E056ED3
:1015F600042A00EF0BF0D8900536042EFEEF0AF011
:1016060001C0D9FF02C0DAFFDF50070B066E065095
:10161600020D3B0EF324D96E000EF420DA6EDECFF7
:1016260007F0DDCF08F007C0D9FF08C0DAFF055084
:10163600DF1233EF0BF00350046E056A0550000A03
:10164600D8B428EF0BF0BBEF0AF00450000AD8B468
:10165600BFEF0AF0010AD8B4F0EF0AF0BBEF0AF0C8
:101666000A5012001A066CEF0BF017C00EF018C0E5
:101676000FF01A50800F106E23EC0CF01D6E89EFE0
:101686000BF017C00EF018C00FF01A50C00F106EF6
:1016960023EC0CF01D6E89EF0BF017C00EF018C08E
:1016A6000FF01A50940F106E23EC0CF01D6E89EF9C
:1016B6000BF017C00EF018C00FF01A50D40F106EB2
:1016C60023EC0CF01D6E89EF0BF0000E1D6E89EFFA
:1016D6000BF019501B6E1C6A1C50000AD8B476EF2A
:1016E6000BF068EF0BF01B50010AD8B438EF0BF083
:1016F600030AD8B444EF0BF0010AD8B450EF0BF04C
:10170600070AD8B45CEF0BF068EF0BF01D5012001F
:10171600000E2E6E24502510D8B494EF0BF096EFE1
:101726000BF09FEF0BF028502910D8A49DEF0BF07B
:101736009FEF0BF0A3EF0BF0000E2D6ED9EF0BF021
:1017460024C00EF025C00FF02A50080DF350400FAC
:10175600106E23EC0CF0000E2E6E24C00EF025C089
:101766000FF02E5028242B6E000E29202C6E2BC035
:10177600F6FF2CC0F7FF0800F5CF10F0DBEC0BF0FE
:101786002E2A070E2E64CAEF0BF0CCEF0BF0B0EF4B
:101796000BF024C01EF025C01FF026C020F027C085
:1017A60021F02AC022F010EC0DF02D6E2D50120003
:1017B600000E166E0E500F10D8A4E4EF0BF0E6EFF5
:1017C6000BF0EAEF0BF0000E156E21EF0CF00EC0D9
:1017D60001F00FC002F0010E036E9FEC0AF0000E3E
:1017E600166E16500E24116E000E0F20126E020E8B
:1017F6001124016E000E1220026E16C013F010C0E6
:1018060014F0132A09EF0CF0D8901432132E07EFB8
:101816000CF01450010B036E9FEC0AF0162A070E0B
:10182600166418EF0CF01AEF0CF0F4EF0BF00EC084
:101836000BF00FC00CF033EC0DF0156E15501200C6
:10184600000E166E0E500F10D8A42CEF0CF02EEFD3
:101856000CF032EF0CF0000E156E69EF0CF00EC0B6
:1018660001F00FC002F0000E036E9FEC0AF0000EAE
:10187600166E16500E24116E000E0F20126E020EFA
:101886001124016E000E1220026E16C013F010C055
:1018960014F0132A51EF0CF0D8901432132E4FEF98
:1018A6000CF01450010B036E9FEC0AF0162A070E7B
:1018B600166460EF0CF062EF0CF03CEF0CF00EC01B
:1018C6000BF00FC00CF033EC0DF0156E1550120036
:1018D6000F501010D8A472EF0CF074EF0CF078EFE4
:1018E6000CF0000E126EA4EF0CF00FC001F010C049
:1018F60002F0000E036E9FEC0AF0126E0FC00BF0A2
:1019060010C00CF011380F0B0F0B0D6EDCEC0CF049
:10191600126E0FC00BF010C00CF04DEC0DF0126EF5
:101926000FC00BF010C00CF011500F0B0D6EDCEC5D
:101936000CF0126E0FC00BF010C00CF04DEC0DF059
:10194600126E125012000B500C10D8B4ADEF0CF002
:10195600AFEF0CF0C0EF0CF00BC0D9FF0CC0DAFFF4
:10196600DF30E832E832070B0D6E070E0D64BEEF6E
:101976000CF0C0EF0CF0C4EF0CF0000E0E6EDAEFB8
:101986000CF00BC001F00CC002F0D1EC08F00E6EAA
:101996000BC001F00CC002F00BC0D9FF0CC0DAFF7F
:1019A600000EDFBE010E036E9FEC0AF00E6E0E50A7
:1019B6001200020E0B24016E000E0C20026E0D505A
:1019C600010B036E9FEC0AF0030E0B24016E000E52
:1019D6000C20026ED8900D30010B036E9FEC0AF0BE
:1019E600040E0B24016E000E0C20026E0D40E84220
:1019F6003F0B010B036E9FEC0AF0050E0B24016EE4
:101A0600000E0C20026E0D38E8461F0B010B036E0C
:101A16009FEC0AF00E6E0E5012001E501F10D8A436
:101A260017EF0DF019EF0DF01DEF0DF0000E236E00
:101A360031EF0DF01EC017F01FC018F020C019F0CE
:101A460021C01AF035EC0BF0236E1EC00EF01FC03D
:101A56000FF022C010F0DBEC0BF0236E23501200C7
:101A6600010E0B24016E000E0C20026E010E036E99
:101A76009FEC0AF000D000D000F0010E0B24016E9E
:101A8600000E0C20026E000E036E9FEC0AF00D6E27
:101A96000D501200010E0B24016E000E0C20026E7A
:101AA600010E036E9FEC0AF000D000D000F0010E8C
:101AB6000B24016E000E0C20026E000E036E9FECCE
:101AC6000AF00D6E0D501200800F810F820F830FEA
:101AD600840F890F8A0F8B0F8C0F8D0F920F930F28
:101AE600940F950F960F323A030B131B232B333BA0
:101AF600020A121A222ACE0EF66E1A0EF76E000E81
:101B0600F86E00EE31F010EE2EF00900F5CFEEFF84
:101B1600E550E150FAE1606A000EF86E000123EF2D
:101B260008F0590E136E000E146E09EC0AF04F0EF3
:101B3600176E000E186E73EC09F0120094EC0DF09F
:021B460012008B
:020000040020DA
:08000000FFFFFFFFFFFFFFFF00
:020000040030CA
:0E000000FF071F1FFF8385FF0FC00FE00F409B
:00000001FF
