:0400000069EF7CF038
:10F89000220E356E000E366EC4EC7CF0396EC00E52
:10F8A000276E030E7EEC7CF0396E1200800F810F04
:10F8B000820F830F840F890F8A0F8B0F8C0F8D0F90
:10F8C000920F930F940F950F960F323B17020A1267
:10F8D0001A00AC0EF66EF80EF76E000EF86E00EE23
:10F8E00001F010EE26F00900F5CFEEFFE550E150F3
:10F8F000FAE1000EF86E00011DEF7FF02B6E010E95
:10F900002A6E040E2B6487EF7CF089EF7CF08DEF7C
:10F910007CF0000E2A6E9FEF7CF02B50020D150E2E
:10F92000F324D96E000EF420DA6EDECF28F0DDCF9E
:10F9300029F028C0D9FF29C0DAFF27C0DFFF2A50ED
:10F940001200336E010E326E040E3364AAEF7CF0A7
:10F95000ACEF7CF0B0EF7CF0000E326EC2EF7CF0CA
:10F960003350020D0B0EF324D96E000EF420DA6E24
:10F97000DECF30F0DDCF31F030C0D9FF31C0DAFF5B
:10F980002FC0DFFF3250120035503610D8A4CBEF15
:10F990007CF0CDEF7CF0D1EF7CF0000E376EF3EF12
:10F9A0007CF035C031F036C032F0F5EC7CF0376ECB
:10F9B000010E3524316E000E3620326EF5EC7CF0EF
:10F9C000376E020E3524316E000E3620326EF5ECA5
:10F9D0007CF0376E030E3524316E000E3620326E09
:10F9E000F5EC7CF0376E3750120031503210D8B43D
:10F9F000FCEF7CF0FEEF7CF00FEF7DF031C0D9FF23
:10FA000032C0DAFFDF30E832E832070B336E070E20
:10FA100033640DEF7DF00FEF7DF013EF7DF0000EFE
:10FA2000346E29EF7DF031C027F032C028F07BEC36
:10FA30007EF0346E31C027F032C028F031C0D9FFDB
:10FA400032C0DAFF000EDFBE010E296EE5EC7DF05C
:10FA5000346E34501200000E2C6E28BE34EF7DF050
:10FA600032EF7DF03AEF7DF0276C281ED8B0282ABF
:10FA7000010E2C6E2ABE41EF7DF03FEF7DF045EF89
:10FA80007DF0296C2A1ED8B02A2A29502A10D8B411
:10FA90004CEF7DF04EEF7DF072EF7DF0010E2B6E9E
:10FAA00056EF7DF0D89029362A362B2A2AAE5BEF06
:10FAB0007DF05DEF7DF052EF7DF02950275C2A50FC
:10FAC0002858D8A066EF7DF068EF7DF06CEF7DF0F0
:10FAD0002950275E2A50285AD8902A3229322B2EB4
:10FAE0005DEF7DF02C50D8B478EF7DF07AEF7DF0AB
:10FAF0007EEF7DF0276C281ED8B0282A27C027F07B
:10FB000028C028F01200000E2C6E2ABE8CEF7DF06B
:10FB10008AEF7DF092EF7DF0296C2A1ED8B02A2A58
:10FB2000010E2C6E28BE99EF7DF097EF7DF09FEFD0
:10FB30007DF0276C281ED8B0282A010E2C1A000E42
:10FB40002E6E000E2D6E29502A10D8B4AAEF7DF02B
:10FB5000ACEF7DF0D4EF7DF0010E2B6EB4EF7DF0B5
:10FB6000D89029362A362B2A2AAEB9EF7DF0BBEF82
:10FB70007DF0B0EF7DF0D8902D362E362950275CE1
:10FB80002A502858D8A0C7EF7DF0C9EF7DF0CEEFFE
:10FB90007DF02950275E2A50285A2D80D8902A328D
:10FBA00029322B2EBBEF7DF02C50D8B4DAEF7DF04C
:10FBB000DCEF7DF0E0EF7DF02D6C2E1ED8B02E2A0C
:10FBC0002DC027F02EC028F01200010E306E2750F5
:10FBD0002810D8B4EEEF7DF0F0EF7DF001EF7EF06D
:10FBE00027C0D9FF28C0DAFFDF30E832E832070B40
:10FBF0002A6E070E2A64FFEF7DF001EF7EF064EFBE
:10FC00007EF0000E306E79EF7EF027C0D9FF28C05D
:10FC1000DAFFDF30E832E832070B2A6E010E2B6E76
:10FC20002A2A15EF7EF0D8902B362A2E13EF7EF07D
:10FC30002B50FF0A2C6E27C0D9FF28C0DAFFDF50F7
:10FC4000070B2D6E2D50020D0B0EF324D96E000EF6
:10FC5000F420DA6EDECF2EF0DDCF2FF02EC0D9FFEC
:10FC60002FC0DAFF2C50DF1679EF7EF027C0D9FFC6
:10FC700028C0DAFFDF30E832E832070B2A6E010EC7
:10FC80002B6E2A2A46EF7EF0D8902B362A2E44EF90
:10FC90007EF027C0D9FF28C0DAFFDF50070B2C6E9B
:10FCA0002C50020D0B0EF324D96E000EF420DA6EE8
:10FCB000DECF2DF0DDCF2EF02DC0D9FF2EC0DAFF24
:10FCC0002B50DF1279EF7EF029502A6E2B6A2B50D1
:10FCD000000AD8B46EEF7EF001EF7EF02A50000AE1
:10FCE000D8B405EF7EF0010AD8B436EF7EF001EF0C
:10FCF0007EF030501200010E2F6E27502810D8B41D
:10FD000084EF7EF086EF7EF097EF7EF027C0D9FF7C
:10FD100028C0DAFFDF30E832E832070B296E070E21
:10FD2000296495EF7EF097EF7EF0FAEF7EF0000EFB
:10FD30002F6E1BEF7FF027C0D9FF28C0DAFFDF301E
:10FD4000E832E832070B296E010E2A6E292AABEF42
:10FD50007EF0D8902A36292EA9EF7EF02A50FF0A8D
:10FD60002B6E27C0D9FF28C0DAFFDF50070B2C6E9F
:10FD70002C50020D150EF324D96E000EF420DA6E0D
:10FD8000DECF2DF0DDCF2EF02DC0D9FF2EC0DAFF53
:10FD90002B50DF161BEF7FF027C0D9FF28C0DAFFFA
:10FDA000DF30E832E832070B296E010E2A6E292A6D
:10FDB000DCEF7EF0D8902A36292EDAEF7EF027C0CD
:10FDC000D9FF28C0DAFFDF50070B2B6E2B50020D36
:10FDD000150EF324D96E000EF420DA6EDECF2CF06F
:10FDE000DDCF2DF02CC0D9FF2DC0DAFF2A50DF1255
:10FDF0001BEF7FF027C0D9FF28C0DAFFDFBC03EF7D
:10FE00007FF006EF7FF0010E07EF7FF0000E296E06
:10FE10002A6A2A50000AD8B410EF7FF097EF7EF0DC
:10FE20002950000AD8B49BEF7EF0010AD8B4CCEF79
:10FE30007EF097EF7EF02F50120048EC7CF0000E21
:10FE40003A6E3E0E2F6E030EA1EC7CF0396E21C08F
:10FE500027F0286A000E2A6E0A0E296E83EC7DF0C8
:10FE600027502F6E020EA1EC7CF0396E090E386E11
:10FE7000A70EE82EFED7382EFCD700F03D0E2F6ED1
:10FE8000030EA1EC7CF0396E21C027F0286A000E29
:10FE90002A6E0A0E296E2BEC7DF027502F6E020E73
:10FEA000A1EC7CF0396E090E386EA70EE82EFED755
:10FEB000382EFCD700F03B0E2F6E030EA1EC7CF029
:10FEC000396E20C027F0286A000E2A6E0A0E296EAD
:10FED00083EC7DF027502F6E020EA1EC7CF0396E82
:10FEE000090E386EA70EE82EFED7382EFCD700F08C
:10FEF000370E2F6E030EA1EC7CF0396E20C027F078
:10FF0000286A000E2A6E0A0E296E2BEC7DF027500F
:10FF10002F6E020EA1EC7CF0396E090E386EA70E22
:10FF2000E82EFED7382EFCD700F02F0E2F6E030ED2
:10FF3000A1EC7CF0396E1FC027F0286A000E2A6EF3
:10FF40000A0E296E83EC7DF027502F6E020EA1EC75
:10FF50007CF0396E090E386EA70EE82EFED7382ECB
:10FF6000FCD700F01F0E2F6E030EA1EC7CF0396E53
:10FF70001FC027F0286A000E2A6E0A0E296E2BEC8D
:10FF80007DF027502F6E020EA1EC7CF0396E090E29
:10FF9000386EA70EE82EFED7382EFCD700F03A2A8E
:10FFA000310E3A64D6EF7FF0D8EF7FF021EF7FF08B
:10FFB0001F2A3C0E1F18D8A4E0EF7FF0E2EF7FF07D
:10FFC000E5EF7FF0000E1F6E202A3C0E2018D8A40B
:10FFD000ECEF7FF0EEEF7FF0F1EF7FF0000E206EA0
:10FFE000212A180E2118D8A4F8EF7FF0FAEF7FF03D
:10FFF0001FEF7FF0000E216E1FEF7FF000EF00F08B
:020000040020DA
:08000000FFFFFFFFFFFFFFFF00
:020000040030CA
:0E000000FF071F1FFF8385FF0FC00FE00F409B
:00000001FF
