:040000004BEF00F0D2
:060008006D8249ED09F0D4
:100018006D80D8CF65F0E8CF66F0E0CF67F0FACF13
:1000280068F0FBCF69F0D9CF6AF0DACF6BF0F0A6B1
:1000380020EF00F022EF00F02BEF00F0F0A027EF08
:1000480000F029EF00F02BEF00F079EC0FF09DA401
:1000580030EF00F032EF00F03BEF00F09EA437EFF6
:1000680000F039EF00F03BEF00F092EC0EF06BC0BF
:10007800DAFF6AC0D9FF69C0FBFF68C0FAFF67C032
:10008800E0FF66C0E8FF65C0D8FF6D9010006AEF1A
:020098000DF069
:10100000003738392F3435362A3132332D23303DED
:051010002B2569000022
:10101600010E0001AE6FA651A711D8B415EF08F066
:1010260017EF08F028EF08F0A6C0D9FFA7C0DAFF2F
:10103600DF30E832E832070BA86F070EA86526EF07
:1010460008F028EF08F08DEF08F0000EAE6FAEEF57
:1010560008F0A6C0D9FFA7C0DAFFDF30E832E832D1
:10106600070BA86F010EA96FA82B3CEF08F0D890CC
:10107600A937A82F3AEF08F00001A951FF0AAA6F75
:10108600A6C0D9FFA7C0DAFFDF50070BAB6FAB5185
:10109600020D370EF324D96E000EF420DA6EDECF81
:1010A600ACF0DDCFADF0ACC0D9FFADC0DAFFAA51D0
:1010B600DF16AEEF08F0A6C0D9FFA7C0DAFFDF3013
:1010C600E832E832070BA86F010EA96FA82B6EEF66
:1010D60008F0D890A937A82F6CEF08F0A6C0D9FF62
:1010E600A7C0DAFFDF50070B0001AA6FAA51020D55
:1010F600370EF324D96E000EF420DA6EDECFABF095
:10110600DDCFACF0ABC0D9FFACC0DAFFA951DF121E
:10111600AEEF08F0A6C0D9FFA7C0DAFFDFBC96EF96
:1011260008F099EF08F0010E9AEF08F0000EA86F8C
:10113600A96BA951000AD8B4A3EF08F028EF08F06C
:10114600A851000AD8B42CEF08F0010AD8B45EEF13
:1011560008F028EF08F0AE511200010E0001AF6F43
:10116600A651A711D8B4BAEF08F0BCEF08F0CDEF3E
:1011760008F0A6C0D9FFA7C0DAFFDF30E832E832B0
:10118600070BA96F070EA965CBEF08F0CDEF08F0A6
:1011960032EF09F0000EAF6F47EF09F0A6C0D9FF96
:1011A600A7C0DAFFDF30E832E832070BA96F010E7D
:1011B600AA6FA92BE1EF08F0D890AA37A92FDFEF85
:1011C60008F00001AA51FF0AAB6FA6C0D9FFA7C05D
:1011D600DAFFDF50070BAC6FAC51020D2D0EF32476
:1011E600D96E000EF420DA6EDECFADF0DDCFAEF0B4
:1011F600ADC0D9FFAEC0DAFFAB51DF1647EF09F03D
:10120600A6C0D9FFA7C0DAFFDF30E832E832070B05
:10121600A96F010EAA6FA92B13EF09F0D890AA3770
:10122600A92F11EF09F0A6C0D9FFA7C0DAFFDF503A
:10123600070B0001AB6FAB51020D2D0EF324D96ED7
:10124600000EF420DA6EDECFACF0DDCFADF0ACC030
:10125600D9FFADC0DAFFAA51DF1247EF09F0A85156
:10126600A96FAA6BAA51000AD8B43CEF09F0CDEFDA
:1012760008F0A951000AD8B4D1EF08F0010AD8B491
:1012860003EF09F0CDEF08F0AF5112000600FACFD8
:1012960059F0FBCF5AF0D9CF5BF0DACF5CF0F2A869
:1012A60057EF09F059EF09F062EF09F0F2A25EEF8D
:1012B60009F060EF09F062EF09F07DEC0FF0F0A89D
:1012C60067EF09F069EF09F072EF09F0F0A26EEF2F
:1012D60009F070EF09F072EF09F07BEC0FF0F2AA5B
:1012E60077EF09F079EF09F082EF09F0F2A47EEFCB
:1012F60009F080EF09F082EF09F05EEC0FF09DA097
:1013060087EF09F089EF09F092EF09F09EA08EEFC2
:1013160009F090EF09F092EF09F056EC0FF09DA25C
:1013260097EF09F099EF09F0A2EF09F09EA29EEF60
:1013360009F0A0EF09F0A2EF09F072EC0FF0A0A2FD
:10134600A7EF09F0A9EF09F0B2EF09F0A1A2AEEFFD
:1013560009F0B0EF09F0B2EF09F04EEC0FF09DA4E2
:10136600B7EF09F0B9EF09F0C2EF09F09EA4BEEF9E
:1013760009F0C0EF09F0C2EF09F0C0EC0EF0A0A032
:10138600C7EF09F0C9EF09F0D2EF09F0A1A0CEEF3F
:1013960009F0D0EF09F0D2EF09F0D7EC0EF05CC0FF
:1013A600DAFF5BC0D9FF5AC0FBFF59C0FAFF6D9246
:1013B6001100000120EE03F0A651D926A751DA222A
:1013C600DF50D8A4E9EF09F0EBEF09F01DEF0AF0C2
:1013D600A6C0D9FFA7C0DAFFDECF05F0DDCF06F045
:1013E6009D849E94D08E20EE02F0A651D926A75158
:1013F600DA22DE04D8A402EF0AF004EF0AF008EFBE
:101406000AF0F28E9F8459EF0AF020EE02F0A65100
:10141600D926A751DA22DF50D8A414EF0AF016EF26
:101426000AF01BEF0AF0F28EF28C9F9459EF0AF045
:1014360059EF0AF020EE03F0A651D926A751DA2279
:10144600DE04D8A429EF0AF02BEF0AF059EF0AF0D0
:10145600A6C0D9FFA7C0DAFFDECF03F0DDCF04F0C8
:10146600A080A190D08E20EE02F0A651D926A751D9
:10147600DA22DE04D8A442EF0AF044EF0AF048EF7D
:101486000AF0F28EA28059EF0AF020EE02F0A65181
:10149600D926A751DA22DF50D8A454EF0AF056EF26
:1014A6000AF01BEF0AF0F28EF28CA290010E1200E7
:1014B600010E0001AA6FA0EF0AF020EE03F0A6517C
:1014C600D926A751DA22DF50D8A46CEF0AF06EEFC6
:1014D6000AF07DEF0AF020EE05F0A651D926A751B5
:1014E600DA22DF50A86FBD50A819F00BA819BD6EFF
:1014F600C7EF0AF020EE03F0A651D926A751DA224B
:10150600DE04D8A489EF0AF08BEF0AF09AEF0AF00E
:1015160020EE05F0A651D926A751DA22DF50A86F92
:10152600BA50A819F00BA819BA6EC7EF0AF0C7EFA0
:101536000AF0000EAA6FC7EF0AF020EE05F0A651DA
:10154600D926A751DA22DF50A86FA96BA951000A44
:10155600D8B4B0EF0AF09CEF0AF0A851020AD8B44A
:1015660060EF0AF00A0AD8B460EF0AF0010AD8B4AC
:1015760060EF0AF0030AD8B460EF0AF0010AD8B4A3
:1015860060EF0AF09CEF0AF0AA511200010E00016A
:10159600B56FB251B311D8A4D3EF0AF0D5EF0AF064
:1015A600D9EF0AF0000EB56F31EF0BF0B190B2C073
:1015B600AFF0B3C0B0F0FBEC0BF0B2C0A6F0B3C016
:1015C600A7F055EC0EF0000120EE03F0B251D9263B
:1015D600B351DA22DF50B46FB43BB150B419CF0B1C
:1015E600B419B16E20EE04F0B251D926B351DA2205
:1015F600DECFA6F0DDCFA7F017EC0FF0B2C0D9FF13
:10160600B3C0DAFFDECF09F0DDCF0AF0A082A192E7
:10161600D08E000120EE02F0B251D926B351DA2263
:10162600DE04D8A419EF0BF01BEF0BF01FEF0BF045
:10163600F28EA28230EF0BF020EE02F0B251D926E4
:10164600B351DA22DF50D8A42BEF0BF02DEF0BF0BD
:1016560030EF0BF0F28EF28CA292B180B5511200EF
:10166600010E0001AA6F78EF0BF020EE03F0A651F1
:10167600D926A751DA22DF50D8A444EF0BF046EF63
:101686000BF055EF0BF020EE05F0A651D926A75129
:10169600DA22DF50A86FBD50A819F00BA819BD6E4D
:1016A6009BEF0BF020EE03F0A651D926A751DA22C4
:1016B600DE04D8A461EF0BF063EF0BF072EF0BF0D2
:1016C60020EE05F0A651D926A751DA22DF50A86FE1
:1016D600BA50A819F00BA819BA6E9BEF0BF09BEF46
:1016E6000BF0000EAA6F9BEF0BF020EE05F0A65153
:1016F600D926A751DA22DF50A86FA96BA951000A93
:10170600D8B488EF0BF074EF0BF0A851040AD8B4E4
:1017160038EF0BF0010AD8B438EF0BF0030AD8B44F
:1017260038EF0BF0010AD8B438EF0BF074EF0BF07A
:10173600AA511200000120EE04F0AB51D926AC519B
:10174600DA22DF50D8A4AAEF0BF0ACEF0BF0BEEF15
:101756000BF0ABC0A6F0ACC0A7F033EC0BF0000169
:10176600AE6FABC0A6F0ACC0A7F041EC0CF0000128
:10177600AE6FF9EF0BF020EE04F0AB51D926AC5169
:10178600DA22DE04D8A4CAEF0BF0CCEF0BF0DEEFC2
:101796000BF0ABC0A6F0ACC0A7F05BEC0AF0000102
:1017A600AE6FABC0A6F0ACC0A7F041EC0CF00001E8
:1017B600AE6FF9EF0BF020EE04F0AB51D926AC5129
:1017C600DA22020EDE18D8A4EBEF0BF0EDEF0BF0E9
:1017D600F7EF0BF0ABC0A6F0ACC0A7F077EC0FF0BC
:1017E6000001AE6FF9EF0BF0000EAE6FAE511200B6
:1017F600000120EE06F0AF51D926B051DA22DFB053
:1018060007EF0CF009EF0CF00CEF0CF0B19240EF83
:101816000CF020EE06F0AF51D926B051DA22DFA047
:1018260017EF0CF019EF0CF040EF0CF0B18220EE40
:1018360006F0AF51D926B051DA22DFB225EF0CF00F
:1018460027EF0CF02AEF0CF0B19438EF0CF020EEF5
:1018560006F0AF51D926B051DA22DFA235EF0CF0EF
:1018660037EF0CF038EF0CF0B18441C0B1F0B10E97
:10187600A66F000EA76F0BEC08F01200010E000118
:10188600A96F20EE06F0A651D926A751DA22DF501D
:10189600D8A450EF0CF052EF0CF056EF0CF0B196C6
:1018A600B19C7DEF0CF020EE06F0A651D926A7518B
:1018B600DA22DE04D8A462EF0CF064EF0CF068EFD5
:1018C6000CF0B186B19C7DEF0CF020EE06F0A6512F
:1018D600D926A751DA22020EDE18D8A475EF0CF02D
:1018E60077EF0CF07BEF0CF0B186B18C7DEF0CF04E
:1018F600000EA96FA9511200010E0001AB6FA6518F
:10190600A711D8A489EF0CF08BEF0CF08FEF0CF039
:10191600000EAB6FB9EF0CF0A8C0ACF0A9C0ADF0EB
:1019260020EE03F0A651D926A751DA22DF50D8A41B
:101936009FEF0CF0A1EF0CF0A7EF0CF0ACC0BEFFD0
:10194600ADC0BFFFB9EF0CF020EE03F0A651D926CB
:10195600A751DA22DE04D8A4B3EF0CF0B5EF0CF0F1
:101966008BEF0CF0ACC0BBFFADC0BCFFAB5112009F
:10197600010E626E5D505E10D8A4C4EF0CF0C6EF87
:101986000CF0CAEF0CF0000E626EF4EF0CF05FC0C4
:1019960063F060C064F020EE03F05D50D9265E501F
:1019A600DA22DF50D8A4DAEF0CF0DCEF0CF0E2EF2D
:1019B6000CF063C0BEFF64C0BFFFF4EF0CF020EE76
:1019C60003F05D50D9265E50DA22DE04D8A4EEEF8D
:1019D6000CF0F0EF0CF0C6EF0CF063C0BBFF64C078
:1019E600BCFF62501200010E566E51505210D8A420
:1019F600FFEF0CF001EF0DF005EF0DF0000E566E47
:101A06002FEF0DF053C057F054C058F020EE03F0FE
:101A16005150D9265250DA22DF50D8A415EF0DF0D6
:101A260017EF0DF01DEF0DF057C0BEFF58C0BFFFFA
:101A36002FEF0DF020EE03F05150D9265250DA2246
:101A4600DE04D8A429EF0DF02BEF0DF001EF0DF019
:101A560057C0BBFF58C0BCFF565012000001B05122
:101A6600B111D8B439EF0DF03BEF0DF04CEF0DF09E
:101A7600B0C0D9FFB1C0DAFFDF30E832E832070B79
:101A8600B26F070EB2654AEF0DF04CEF0DF050EF56
:101A96000DF0000EB36F68EF0DF0B0C0A6F0B1C048
:101AA600A7F00BEC08F00001B36FB0C0A6F0B1C010
:101AB600A7F0B0C0D9FFB1C0DAFF000EDFBE010E3D
:101AC600A86FB0EC08F00001B36FB35112008A0E94
:101AD600F66E1E0EF76E000EF86E00EE95F010EE26
:101AE60011F00900F5CFEEFFE550E150FAE10A0EDC
:101AF600F66E1E0EF76E000EF86E00EE2DF010EE6E
:101B060024F00900F5CFEEFFE550E150FAE100EED2
:101B160080F0150EEE6AE806FDE100EE01F02C0EEF
:101B2600EE6AE806FDE16D906D92000166EF0FF03A
:101B36006DA2A0EF0DF029EF0EF02B2A2B04D8A4EE
:101B4600A7EF0DF0A9EF0DF0B5EF0DF0480E5D6EA5
:101B5600000E5E6E300E606ED40E5F6EBBEC0CF047
:101B6600C1EF0DF0480E5D6E000E5E6E920E606E59
:101B76007C0E5F6EBBEC0CF0000E2B6E9F0E5F6E44
:101B8600000E606E000E626E000E616EA9EC0EF025
:101B960012000001B451B511D8A4D4EF0DF0D6EF60
:101BA6000DF0DAEF0DF0000EB66FFAEF0DF0B4C0DF
:101BB600A6F0B5C0A7F0FCEC0DF00001B66FB4C0FE
:101BC600ABF0B5C0ACF09DEC0BF00001B66F070EA4
:101BD600B425B06F000EB521B16F31EC0DF0B4C075
:101BE600A6F0B5C0A7F0DCEC09F00001B66FB6515F
:101BF6001200010E0001A96F20EE03F0A651D926AE
:101C0600A751DA22DF50D8A40BEF0EF00DEF0EF03D
:101C160012EF0EF0F00EBD169D9427EF0EF020EE9B
:101C260003F0A651D926A751DA22DE04D8A41EEF66
:101C36000EF020EF0EF025EF0EF0F00EBA16A09083
:101C460027EF0EF0000EA96FA95112002B2A2B04C4
:101C5600D8A430EF0EF032EF0EF03EEF0EF0480E45
:101C6600516E000E526E300E546ED40E536EF6EC5C
:101C76000CF04AEF0EF0480E516E000E526E920EA8
:101C8600546E7C0E536EF6EC0CF0000E2B6E9F0E0F
:101C9600536E000E546E000E566E000E556EEEEC30
:101CA6000EF01200000120EE06F0A651D926A7512B
:101CB600DA22DFB461EF0EF063EF0EF066EF0EF09E
:101CC600B19E74EF0EF020EE06F0A651D926A7516C
:101CD600DA22DFA471EF0EF073EF0EF074EF0EF060
:101CE600B18E1200480E0001A66F000EA76F920E6D
:101CF600A96F7C0EA86F7FEC0CF06C6E480E00018D
:101D0600B46F000EB56FCCEC0DF06C6E9F0E00013B
:101D1600B26F000EB36FC9EC0AF06C6E12009E949F
:101D260005500610D8B49AEF0EF09CEF0EF0A8EF0F
:101D36000EF002D8A8EF0EF00500FA6E0550FD6E03
:101D46000650FE6EFF6AFA5012001200010E636E14
:101D56005F506010D8A4B2EF0EF0B4EF0EF0B8EFFB
:101D66000EF0000E636EBEEF0EF061C05DF062C055
:101D76005EF021EC0FF0635012009E9405500610A1
:101D8600D8B4C8EF0EF0CAEF0EF0D6EF0EF002D8B8
:101D9600D6EF0EF00500FA6E0550FD6E0650FE6E8B
:101DA600FF6AFA5012001200A19003500410D8B432
:101DB600DFEF0EF0E1EF0EF0EDEF0EF002D8EDEFF3
:101DC6000EF00500FA6E0350FD6E0450FE6EFF6ABB
:101DD600FA5012001200010E576E53505410D8A438
:101DE600F7EF0EF0F9EF0EF0FDEF0EF0000E576E66
:101DF60003EF0FF055C051F056C052F03CEC0FF017
:101E060057501200890F8A0F8B0F8C0F8D0F920F70
:101E1600930F940F950F960F424260010101013610
:101E26001B000001020212030001A751B36EA6C0F7
:101E3600B2FFA6C007F0A7C008F012005E50B36E4E
:101E46005DC0B2FF5DC007F05EC008F012005250E0
:101E5600CF6E51C0CEFF51C00DF052C00EF0120031
:101E66005250D76E51C0D6FF51C011F052C012F079
:101E760012005250B36E51C0B2FF51C007F052C0AB
:101E860008F01200800F810F820F830F840F00006D
:051E9600010000000442
:101E9C00A19207C051F008C052F03CEC0FF01200B8
:101EAC009E900DC051F00EC052F02AEC0FF01200B3
:101EBC00F29411C051F012C052F033EC0FF012003A
:101ECC0075EC0EF068EF0FF04BEF00F0516E51C057
:101EDC00CCFF51C02CF012009E922C506CEC0FF0E9
:101EEC001200010E1200F0901200F0921200F29209
:021EFC001200D2
:020000040020DA
:08000000FFFFFFFFFFFFFFFF00
:020000040030CA
:0E000000FF071F1FFF8385FF0FC00FE00F409B
:00000001FF
