:04000000E9EF7EF0B6
:10FD8600800F810F820F830F840F890F8A0F8B0FCD
:10FD96008C0F8D0F920F930F940F950F960F4312A2
:10FDA6000A02CAEC7FF0020E47EC7FF0306E030EBB
:10FDB6002C6E8A0E2B6E560EE82EFED72B2EFCD7F7
:10FDC6002C2EFAD7D6EF7EF000EF00F0860EF66EF8
:10FDD600FD0EF76E000EF86E00EE01F010EE22F04A
:10FDE6000900F5CFEEFFE550E150FAE12F6A2E6AE1
:10FDF6002D6A000EF86E0001D4EF7EF0276E010E1C
:10FE0600266E040E27640AEF7FF00CEF7FF010EFEA
:10FE16007FF0000E266E22EF7FF02750020D150EA2
:10FE2600F324D96E000EF420DA6EDECF24F0DDCF97
:10FE360025F024C0D9FF25C0DAFF23C0DFFF2650F6
:10FE46001200276E010E266E040E27642DEF7FF03A
:10FE56002FEF7FF033EF7FF0000E266E45EF7FF039
:10FE66002750020D0B0EF324D96E000EF420DA6E25
:10FE7600DECF24F0DDCF25F024C0D9FF25C0DAFF80
:10FE860023C0DFFF26501200266E010E256E040EDB
:10FE9600266450EF7FF052EF7FF056EF7FF0000EB2
:10FEA600256E68EF7FF02650020D0B0EF324D96EF7
:10FEB600000EF420DA6EDECF23F0DDCF24F023C06F
:10FEC600D9FF24C0DAFFFF0EDF1A25501200286E74
:10FED600010E276E23502410D8B474EF7FF076EF0E
:10FEE6007FF07EEF7FF0040E28647CEF7FF07EEFDC
:10FEF6007FF082EF7FF0000E276E98EF7FF028509C
:10FF0600020D150EF324D96E000EF420DA6EDECF44
:10FF160025F0DDCF26F025C0D9FF26C0DAFF23C0A5
:10FF2600E1FF24C0E2FFDFCFE7FF27501200286E73
:10FF3600010E276E23502410D8B4A4EF7FF0A6EF4D
:10FF46007FF0AEEF7FF0040E2864ACEF7FF0AEEFEB
:10FF56007FF0B2EF7FF0000E276EC8EF7FF02850DB
:10FF6600020D010EF324D96E000EF420DA6EDECFF8
:10FF760025F0DDCF26F025C0D9FF26C0DAFF23C045
:10FF8600E1FF24C0E2FFDFCFE7FF27501200000E9B
:10FF9600236E020E01EC7FF0306E2F0E236E000EE4
:10FFA600246E020E6AEC7FF0306E550E236E020E42
:10FFB60024EC7FF0306E2E0E236E000E246E020EA1
:10FFC6009AEC7FF0306E100E2A6E390E296E0E0EE8
:10FFD600E82EFED7292EFCD72A2EFAD7AA0E236E94
:10FFE600020E24EC7FF0306E2E0E236E000E246E71
:0AFFF600020E9AEC7FF0306E12004C
:020000040020DA
:08000000FFFFFFFFFFFFFFFF00
:020000040030CA
:0E000000FF071F1FFF8385FF0FC00FE00F409B
:00000001FF
