:04000000A4EF7CF0FD
:10F83400800F810F820F830F840F890F8A0F8B0F24
:10F844008C0F8D0F920F930F940F950F960FCB0083
:10F85400004300011A120A0232503310D8A435EFC3
:10F864007CF037EF7CF03BEF7CF0000E346E42EF1F
:10F874007CF032C029F033C02AF05EEC7FF0346EA5
:10F884003450120037503810D8A44BEF7CF04DEFB1
:10F894007CF051EF7CF0000E396E58EF7CF037C0ED
:10F8A40033F038C034F04EEC7DF0396E395012002C
:10F8B40033503410D8A461EF7CF063EF7CF067EF31
:10F8C4007CF0000E356E70EF7CF033C029F034C04C
:10F8D4002AF0000E2B6EC8EC7EF0356E3550120007
:10F8E40033503410D8A479EF7CF07BEF7CF07FEFB9
:10F8F4007CF0000E356E88EF7CF033C029F034C004
:10F904002AF0010E2B6EC8EC7EF0356E35501200D5
:10F91400280E336E000E346E72EC7CF0456E030ECE
:10F92400376E8A0E366E560EE82EFED7362EFCD76C
:10F93400372EFAD7280E336E000E346E5AEC7CF054
:10F94400456E1200340EF66EF80EF76E000EF86E69
:10F9540000EE01F010EE28F00900F5CFEEFFE550BF
:10F96400E150FAE100EE3CF0090EEE6AE806FDE132
:10F97400000EF86E00014DEF7EF0280E376E000E7B
:10F98400386E44EC7CF0456E270E376E000E386EF0
:10F9940044EC7CF0456E260E376E000E386E44EC57
:10F9A4007CF0456E250E376E000E386E44EC7CF00C
:10F9B400456E220E326E000E336E2EEC7CF0456ED8
:10F9C4001F0E326E000E336E2EEC7CF0456E12006C
:10F9D400000E386E000E386E280E336E000E346E34
:10F9E40072EC7CF0456E030E376E8A0E366E560E40
:10F9F400E82EFED7362EFCD7372EFAD7280E336ED4
:10FA0400000E346E5AEC7CF0456E030E376E8A0E8F
:10FA1400366E560EE82EFED7362EFCD7372EFAD782
:10FA2400382A010E386419EF7DF01BEF7DF0EEEFFC
:10FA34007CF01200000E386E000E386E280E336E05
:10FA4400000E346E72EC7CF0456E030E376E8A0E37
:10FA5400366E560EE82EFED7362EFCD7372EFAD742
:10FA6400280E336E000E346E5AEC7CF0456E030E95
:10FA7400376E8A0E366E560EE82EFED7362EFCD71B
:10FA8400372EFAD7382A020E38644BEF7DF04DEF4B
:10FA94007DF020EF7DF0120033503410D8B455EFD0
:10FAA4007DF057EF7DF068EF7DF033C0D9FF34C0AF
:10FAB400DAFFDF30E832E832070B356E070E3564C3
:10FAC40066EF7DF068EF7DF06CEF7DF0000E366E32
:10FAD40082EF7DF033C029F034C02AF05EEC7FF071
:10FAE400366E33C029F034C02AF033C0D9FF34C095
:10FAF400DAFF000EDFBE010E2B6EC8EC7EF0366E10
:10FB040036501200010E326E29502A10D8B48DEFEF
:10FB14007DF08FEF7DF0A9EF7DF02B502C10D8B441
:10FB240096EF7DF098EF7DF0A9EF7DF029C0D9FF25
:10FB34002AC0DAFFDF30E832E832070B2D6E070EF9
:10FB44002D64A7EF7DF0A9EF7DF0ADEF7DF0000E01
:10FB5400326EDEEF7DF029C0D9FF2AC0DAFFDF3034
:10FB6400E832E832070B2D6E29C0D9FF2AC0DAFF2C
:10FB7400DF50070B2E6E2E50020D010EF324D96EAA
:10FB8400000EF420DA6EDECF2FF0DDCF30F02FC080
:10FB9400D9FF30C0DAFFDF50316E2D2AD4EF7DF06B
:10FBA400D89031322D2ED2EF7DF03150010B2BC085
:10FBB400D9FF2CC0DAFFDF6E32501200000E396E0E
:10FBC40033503410D8B4E9EF7DF0EBEF7DF0F4EF6F
:10FBD4007DF035503610D8A4F2EF7DF0F4EF7DF0CF
:10FBE400F8EF7DF0000E386E4BEF7EF020EE02F061
:10FBF4003350D9263450DA22DF50D8A404EF7EF0F3
:10FC040006EF7EF028EF7EF033C029F034C02AF0EE
:10FC1400390E2B6E000E2C6E84EC7DF0386E390498
:10FC2400D8A417EF7EF019EF7EF020EF7EF035C0F8
:10FC3400D9FF36C0DAFFDF6A4BEF7EF035C0D9FF5B
:10FC440036C0DAFF010EDF6E4BEF7EF020EE02F0DD
:10FC54003350D9263450DA22DE04D8A434EF7EF0AF
:10FC640036EF7EF0F4EF7DF033C029F034C02AF093
:10FC7400390E2B6E000E2C6E84EC7DF0386E3950EC
:10FC8400D8A447EF7EF049EF7EF020EF7EF019EF25
:10FC94007EF038501200BFEC7CF0220E336E000E62
:10FCA400346E440E356E000E366EE0EC7DF0456E1B
:10FCB4004404D8A460EF7EF062EF7EF073EF7EF030
:10FCC4003E4A3F2AF50E3E5C010E3F58D8A06DEF28
:10FCD4007EF06FEF7EF079EF7EF0010E436E79EFE8
:10FCE4007EF0000E3F6E000E3E6E000E436E4350DB
:10FCF4004218D8B480EF7EF082EF7EF04FEF7EF0B2
:10FD040043C042F04304D8A48AEF7EF08CEF7EF027
:10FD14004FEF7EF0030E3C183D10D8A494EF7EF014
:10FD240096EF7EF09AEF7EF0000E3D6E000E3C6E74
:10FD34003C4A3D2AAAEF7EF08AEC7CF04FEF7EF03D
:10FD4400EAEC7CF04FEF7EF01CEC7DF04FEF7EF0A0
:10FD54003CC03AF03DC03BF03B50000AD8B4B5EF8C
:10FD64007EF0C4EF7EF03A50010AD8B49EEF7EF0E4
:10FD7400030AD8B4A2EF7EF0010AD8B4A6EF7EF04D
:10FD8400C4EF7EF04FEF7EF000EF00F0010E326E14
:10FD940029502A10D8B4D1EF7EF0D3EF7EF0E4EFEF
:10FDA4007EF029C0D9FF2AC0DAFFDF30E832E8321A
:10FDB400070B2C6E070E2C64E2EF7EF0E4EF7EF06E
:10FDC40047EF7FF0000E326E5CEF7FF029C0D9FF61
:10FDD4002AC0DAFFDF30E832E832070B2C6E010E5E
:10FDE4002D6E2C2AF8EF7EF0D8902D362C2EF6EFBF
:10FDF4007EF02D50FF0A2E6E29C0D9FF2AC0DAFFEB
:10FE0400DF50070B2F6E2F50020D0B0EF324D96E0B
:10FE1400000EF420DA6EDECF30F0DDCF31F030C0EA
:10FE2400D9FF31C0DAFF2E50DF165CEF7FF029C016
:10FE3400D9FF2AC0DAFFDF30E832E832070B2C6E34
:10FE4400010E2D6E2C2A29EF7FF0D8902D362C2E02
:10FE540027EF7FF029C0D9FF2AC0DAFFDF50070B54
:10FE64002E6E2E50020D0B0EF324D96E000EF420CC
:10FE7400DA6EDECF2FF0DDCF30F02FC0D9FF30C0E7
:10FE8400DAFF2D50DF125CEF7FF02B502C6E2D6AC1
:10FE94002D50000AD8B451EF7FF0E4EF7EF02C50DF
:10FEA400000AD8B4E8EF7EF0010AD8B419EF7FF065
:10FEB400E4EF7EF032501200010E316E29502A1008
:10FEC400D8B467EF7FF069EF7FF07AEF7FF029C055
:10FED400D9FF2AC0DAFFDF30E832E832070B2B6E95
:10FEE400070E2B6478EF7FF07AEF7FF0DDEF7FF081
:10FEF400000E316EFEEF7FF029C0D9FF2AC0DAFF71
:10FF0400DF30E832E832070B2B6E010E2C6E2B2A01
:10FF14008EEF7FF0D8902C362B2E8CEF7FF02C5068
:10FF2400FF0A2D6E29C0D9FF2AC0DAFFDF50070B64
:10FF34002E6E2E50020D150EF324D96E000EF420F1
:10FF4400DA6EDECF2FF0DDCF30F02FC0D9FF30C016
:10FF5400DAFF2D50DF16FEEF7FF029C0D9FF2AC04B
:10FF6400DAFFDF30E832E832070B2B6E010E2C6E1D
:10FF74002B2ABFEF7FF0D8902C362B2EBDEF7FF0CD
:10FF840029C0D9FF2AC0DAFFDF50070B2D6E2D5090
:10FF9400020D150EF324D96E000EF420DA6EDECFB6
:10FFA4002EF0DDCF2FF02EC0D9FF2FC0DAFF2C505A
:10FFB400DF12FEEF7FF029C0D9FF2AC0DAFFDFBCD1
:10FFC400E6EF7FF0E9EF7FF0010EEAEF7FF0000E3D
:10FFD4002B6E2C6A2C50000AD8B4F3EF7FF07AEF22
:10FFE4007FF02B50000AD8B47EEF7FF0010AD8B41A
:0CFFF400AFEF7FF07AEF7FF03150120089
:020000040020DA
:08000000FFFFFFFFFFFFFFFF00
:020000040030CA
:0E000000FF071F1FFF8385FF0FC00FE00F409B
:00000001FF
