:0400000023EF00F0FA
:060008006D8249ED09F0D4
:100018006D80E0CF6AF0F0A614EF00F016EF00F064
:100028001FEF00F0F0A01BEF00F01DEF00F01FEF36
:1000380000F077EC0DF06AC0E0FF6D901000D3EF90
:020048000BF0BB
:10100000003738392F3435362A3132332D23303DED
:051010002B2569000022
:10101600010E6B6E000191519211D8B415EF08F0D4
:1010260017EF08F028EF08F091C0D9FF92C0DAFF59
:10103600DF30E832E832070B936F070E936526EF31
:1010460008F028EF08F08DEF08F0000E6B6EAEEF9B
:1010560008F091C0D9FF92C0DAFFDF30E832E832FB
:10106600070B936F010E946F932B3CEF08F0D8900B
:101076009437932F3AEF08F000019451FF0A956FC9
:1010860091C0D9FF92C0DAFFDF50070B966F9651D9
:10109600020D150EF324D96E000EF420DA6EDECFA3
:1010A60097F0DDCF98F097C0D9FF98C0DAFF955139
:1010B600DF16AEEF08F091C0D9FF92C0DAFFDF303D
:1010C600E832E832070B936F010E946F932B6EEFA5
:1010D60008F0D8909437932F6CEF08F091C0D9FFA1
:1010E60092C0DAFFDF50070B0001956F9551020D94
:1010F600150EF324D96E000EF420DA6EDECF96F0CC
:10110600DDCF97F096C0D9FF97C0DAFF9451DF1272
:10111600AEEF08F091C0D9FF92C0DAFFDFBC96EFC0
:1011260008F099EF08F0010E9AEF08F0000E936FA1
:10113600946B9451000AD8B4A3EF08F028EF08F096
:101146009351000AD8B42CEF08F0010AD8B45EEF28
:1011560008F028EF08F06B501200010E6B6E0001CC
:1011660091519211D8B4BAEF08F0BCEF08F0CDEF68
:1011760008F091C0D9FF92C0DAFFDF30E832E832DA
:10118600070B946F070E9465CBEF08F0CDEF08F0D0
:1011960032EF09F0000E6B6E47EF09F091C0D9FFF0
:1011A60092C0DAFFDF30E832E832070B946F010EA7
:1011B600956F942BE1EF08F0D8909537942FDFEFD9
:1011C60008F000019551FF0A966F91C0D9FF92C0B1
:1011D600DAFFDF50070B976F9751020D0B0EF324C2
:1011E600D96E000EF420DA6EDECF98F0DDCF99F0DE
:1011F60098C0D9FF99C0DAFF9651DF1647EF09F07C
:1012060091C0D9FF92C0DAFFDF30E832E832070B2F
:10121600946F010E956F942B13EF09F0D8909537C4
:10122600942F11EF09F091C0D9FF92C0DAFFDF5079
:10123600070B0001966F9651020D0B0EF324D96E23
:10124600000EF420DA6EDECF97F0DDCF98F097C06F
:10125600D9FF98C0DAFF9551DF1247EF09F0935195
:10126600946F956B9551000AD8B43CEF09F0CDEF19
:1012760008F09451000AD8B4D1EF08F0010AD8B4A6
:1012860003EF09F0CDEF08F06B5012000600FACF1D
:1012960064F0FBCF65F0D9CF66F0DACF67F0F3CF15
:1012A60068F0F4CF69F0F2A85BEF09F05DEF09F0A2
:1012B60066EF09F0F2A262EF09F064EF09F066EF5B
:1012C60009F07BEC0DF0F0A86BEF09F06DEF09F07B
:1012D60076EF09F0F0A272EF09F074EF09F076EFFD
:1012E60009F079EC0DF0F2AA7BEF09F07DEF09F039
:1012F60086EF09F0F2A482EF09F084EF09F086EF99
:1013060009F08FEC0CF09DA08BEF09F08DEF09F042
:1013160096EF09F09EA092EF09F094EF09F096EF90
:1013260009F05AEC0DF09DA29BEF09F09DEF09F034
:10133600A6EF09F09EA2A2EF09F0A4EF09F0A6EF2E
:1013460009F06EEC0DF0A0A2ABEF09F0ADEF09F0DD
:10135600B6EF09F0A1A2B2EF09F0B4EF09F0B6EFCB
:1013660009F052EC0DF069C0F4FF68C0F3FF67C0E6
:10137600DAFF66C0D9FF65C0FBFF64C0FAFF6D9255
:101386001100010E00019F6F9C519D11D8A4CEEF54
:1013960009F0D0EF09F0D4EF09F0000E9F6F2BEFA4
:1013A6000AF0B1909CC099F09DC09AF0DCEC0AF06E
:1013B6009CC091F09DC092F031EC0CF0000120EE43
:1013C60003F09C51D9269D51DA22DF509E6F9E3B39
:1013D600B1509E19CF0B9E19B16E20EE04F09C51B0
:1013E600D9269D51DA22DECF91F0DDCF92F01BECAB
:1013F6000DF09CC0D9FF9DC0DAFFDECF38F0DDCFFF
:1014060039F0A082A192D08E000120EE02F09C510C
:10141600D9269D51DA22DE04D8A414EF0AF016EF7D
:101426000AF01AEF0AF0F28EA2822AEF0AF020EEF4
:1014360002F09C51D9269D51DA22DF50D8A426EF1E
:101446000AF028EF0AF02AEF0AF0F28CA292B18095
:101456009F511200010E00019F6F9C519D11D8A44F
:1014660037EF0AF039EF0AF03DEF0AF0000E9F6FF2
:101476008CEF0AF0D59E9CC099F09DC09AF022ECA4
:101486000BF09CC091F09DC092F051EC0CF09CC00A
:1014960091F09DC092F004EC0CF0000120EE04F0F7
:1014A6009C51D9269D51DA22DECF91F0DDCF92F004
:1014B60025EC0DF09CC0D9FF9DC0DAFFDECF3EF0D3
:1014C600DDCF3FF0F28AF294D08E000120EE02F0DA
:1014D6009C51D9269D51DA22DE04D8A475EF0AF074
:1014E60077EF0AF07BEF0AF0F28EF1848BEF0AF0C9
:1014F60020EE02F09C51D9269D51DA22DF50D8A465
:1015060087EF0AF089EF0AF08BEF0AF0F28CF1947C
:10151600D58E9F511200010E606E59505A10D8B4E4
:1015260097EF0AF099EF0AF0AAEF0AF059C0D9FF2F
:101536005AC0DAFFDF30E832E832070B5B6E070E7F
:101546005B64A8EF0AF0AAEF0AF0AEEF0AF0000E0D
:10155600606EDAEF0AF059C0D9FF5AC0DAFFDF3001
:10156600E832E832070B5B6E010E5C6E5B2ABEEF5B
:101576000AF0D8905C365B2EBCEF0AF059C0D9FF52
:101586005AC0DAFFDF50070B5D6E5D50020D0B0E81
:10159600F324D96E000EF420DA6EDECF5EF0DDCFD6
:1015A6005FF05EC0D9FF5FC0DAFF5C50DF1A6050A3
:1015B6001200000120EE06F09951D9269A51DA223E
:1015C600DFB0E8EF0AF0EAEF0AF0EDEF0AF0B192C9
:1015D60021EF0BF020EE06F09951D9269A51DA2226
:1015E600DFA0F8EF0AF0FAEF0AF021EF0BF0B18274
:1015F60020EE06F09951D9269A51DA22DFB206EF8B
:101606000BF008EF0BF00BEF0BF0B19419EF0BF0AA
:1016160020EE06F09951D9269A51DA22DFA216EF6A
:101626000BF018EF0BF019EF0BF0B18420C09BF014
:101636009B0E916F000E926F0BEC08F012000001EA
:1016460020EE06F09951D9269A51DA22DFB02EEF14
:101656000BF030EF0BF033EF0BF0D59A67EF0BF092
:1016660020EE06F09951D9269A51DA22DFA03EEFF4
:101676000BF040EF0BF067EF0BF0D58A20EE06F08B
:101686009951D9269A51DA22DFA64CEF0BF04EEF8C
:101696000BF051EF0BF0D5985FEF0BF020EE06F054
:1016A6009951D9269A51DA22DFB65CEF0BF05EEF3C
:1016B6000BF05FEF0BF0D58821C09BF09B0E916F6E
:1016C600000E926F0BEC08F0120000019A519B116C
:1016D600D8B470EF0BF072EF0BF083EF0BF09AC0FB
:1016E600D9FF9BC0DAFFDF30E832E832070B9C6F88
:1016F600070E9C6581EF0BF083EF0BF087EF0BF085
:10170600000E9D6F9FEF0BF09AC091F09BC092F078
:101716000BEC08F000019D6F9AC091F09BC092F00F
:101726009AC0D9FF9BC0DAFF000EDFBE010E936F91
:10173600B0EC08F000019D6F9D511200010E5F6E26
:10174600000E616E59505A10D8B4ACEF0BF0AEEFE4
:101756000BF0B7EF0BF05B505C10D8A4B5EF0BF0B5
:10176600B7EF0BF0BBEF0BF0000E5F6ED1EF0BF097
:10177600B2CF60F0B3CF61F0605061C05DF05E6AD9
:101786005DC05EF05D6A5D26000E5E225BC0D9FF1D
:101796005CC0DAFF5DC0DEFF5EC0DDFF5F50120099
:1017A600E60EF66E1A0EF76E000EF86E00EEA1F05B
:1017B60010EE07F00900F5CFEEFFE550E150FAE133
:1017C600B60EF66E190EF76E000EF86E00EE01F00C
:1017D60010EE2DF00900F5CFEEFFE550E150FAE1ED
:1017E60000EE80F0110EEE6AE806FDE100EE2EF046
:1017F6002B0EEE6AE806FDE16D906D92000162EF38
:101806000DF0000120EE06F09151D9269251DA2210
:10181600DFB410EF0CF012EF0CF015EF0CF0D586DC
:1018260030EF0CF020EE06F09151D9269251DA22D3
:10183600DFA420EF0CF022EF0CF030EF0CF0D59681
:1018460020EE03F09151D9269251DA22DF506B6EC9
:10185600D5506B18F80B6B18D56E1200000120EEF0
:1018660006F09151D9269251DA22DFB43DEF0CF001
:101876003FEF0CF042EF0CF0B19E50EF0CF020EE73
:1018860006F09151D9269251DA22DFA44DEF0CF0E1
:101896004FEF0CF050EF0CF0B18E1200000120EE6D
:1018A60006F09151D9269251DA22DFA25DEF0CF0B3
:1018B6005FEF0CF062EF0CF0D58C70EF0CF020EEC1
:1018C60006F09151D9269251DA22DFB26DEF0CF073
:1018D6006FEF0CF070EF0CF0D59C12002D0E616EC0
:1018E600000E626EF2EC0CF06C6E260E596E000E57
:1018F6005A6E570E5B6E000E5C6EA1EC0BF06C6EB2
:10190600260E5B6E000E5C6E000E5E6E000E5D6E49
:10191600C4EC0CF06C6E1200F2943CC059F03DC061
:101926005AF038EC0DF03E503F10D8B49DEF0CF055
:101936009FEF0CF0ABEF0CF002D8ABEF0CF005000C
:10194600FA6E3E50FD6E3F50FE6EFF6AFA50120070
:10195600120000019E519F11D8A4B4EF0CF0B6EF0F
:101966000CF0BAEF0CF0000EA06FC2EF0CF09EC0A8
:101976009AF09FC09BF068EC0BF00001A06FA0519D
:101986001200010E5F6E5B505C10D8A4CDEF0CF018
:10199600CFEF0CF0D3EF0CF0000E5F6ED9EF0CF02A
:1019A6005DC059F05EC05AF041EC0DF05F50120078
:1019B600800F810F820F830F840F890F8A0F8B0F81
:1019C6008C0F8D0F920F930F940F950F960F424227
:0D19D6006001010101000001000000050397
:1019E40061506210D8A4F9EF0CF0FBEF0CF0FFEF9C
:1019F4000CF0000E636E06EF0DF061C059F062C08A
:101A04005AF08EEC0AF0636E635012004AEC0DF04B
:101A1400A10E00019C6F000E9D6F2DEC0AF06C6E00
:101A2400260E00019C6F000E9D6FC4EC09F06C6ED5
:101A3400120000019251B36E91C0B2FF91C036F012
:101A440092C037F0120000019251D76E91C0D6FFB8
:101A540091C03CF092C03DF012005A50CF6E59C074
:101A6400CEFF59C032F05AC033F012005A50D76E2C
:101A740059C0D6FF59C03CF05AC03DF012005A502C
:101A8400B36E59C0B2FF59C036F05AC037F01200D5
:101A94002D0E00019E6F000E9F6FACEC0CF0120037
:101AA400A19236C059F037C05AF041EC0DF0120043
:101AB4009E9032C059F033C05AF02FEC0DF0120052
:101AC40008EC0DF064EF0DF023EF00F0596E59C0EF
:101AD400CCFF59C056F012009E92565068EC0DF09F
:091AE4001200E2180103DC0B04FE
:0C1AEE00F0901200F0921200F292120030
:020000040020DA
:08000000FFFFFFFFFFFFFFFF00
:020000040030CA
:0E000000FF071F1FFF8385FF0FC00FE00F409B
:00000001FF
