:0400000007EF00F016
:0A00080064820BED08F0CAEF0DF062
:10100000003738392F3435362A3132332D23303DED
:051010002B2569000022
:101016000600FACF33F0FBCF34F0E1CF35F0E2CF64
:1010260036F0D9CF37F0DACF38F0F3CF39F0F4CF46
:101036003AF0F2A821EF08F023EF08F02CEF08F0C1
:10104600F2A228EF08F02AEF08F02CEF08F043ECA4
:101056000EF0F0A631EF08F033EF08F03CEF08F0A1
:10106600F0A038EF08F03AEF08F03CEF08F02CEC6F
:101076000EF0F0A841EF08F043EF08F04CEF08F04F
:10108600F0A248EF08F04AEF08F04CEF08F015EC34
:101096000EF0F2A651EF08F053EF08F070EF08F0EB
:1010A600F2A058EF08F05AEF08F070EF08F081B898
:1010B6005FEF08F061EF08F070EF08F02204D8A4A3
:1010C60067EF08F069EF08F070EF08F0000E226E87
:1010D600000ED6EC0EF092EF08F0F2A675EF08F0CF
:1010E60077EF08F092EF08F0F2A07CEF08F07EEFC1
:1010F60008F092EF08F081A883EF08F085EF08F07A
:1011060092EF08F02250D8A48BEF08F08DEF08F08C
:1011160092EF08F0010E226E010ED6EC0EF0F2A64A
:1011260097EF08F099EF08F0B6EF08F0F2A09EEFFF
:1011360008F0A0EF08F0B6EF08F081BAA5EF08F0C6
:10114600A7EF08F0B6EF08F02104D8A4ADEF08F039
:10115600AFEF08F0B6EF08F0000E216E000EC2ECFD
:101166000EF0D8EF08F0F2A6BBEF08F0BDEF08F0DE
:10117600D8EF08F0F2A0C2EF08F0C4EF08F0D8EFFD
:1011860008F081AAC9EF08F0CBEF08F0D8EF08F015
:101196002150D8A4D1EF08F0D3EF08F0D8EF08F02B
:1011A600010E216E010EC2EC0EF0F2A6DDEF08F084
:1011B600DFEF08F0FCEF08F0F2A0E4EF08F0E6EF4E
:1011C60008F0FCEF08F081BCEBEF08F0EDEF08F05B
:1011D600FCEF08F02004D8A4F3EF08F0F5EF08F0D0
:1011E600FCEF08F0000E206E000EAEEC0EF01EEFC7
:1011F60009F0F2A601EF09F003EF09F01EEF09F07E
:10120600F2A008EF09F00AEF09F01EEF09F081AC31
:101216000FEF09F011EF09F01EEF09F02050D8A4E6
:1012260017EF09F019EF09F01EEF09F0010E206E15
:10123600010EAEEC0EF0F2A623EF09F025EF09F051
:1012460042EF09F0F2A02AEF09F02CEF09F042EF85
:1012560009F081BE31EF09F033EF09F042EF09F0F2
:101266001F04D8A439EF09F03BEF09F042EF09F06B
:10127600000E1F6E000E9AEC0EF064EF09F0F2A657
:1012860047EF09F049EF09F064EF09F0F2A04EEFDD
:1012960009F050EF09F064EF09F081AE55EF09F05F
:1012A60057EF09F064EF09F01F50D8A45DEF09F07D
:1012B6005FEF09F064EF09F0010E1F6E010E9AEC64
:1012C6000EF03AC0F4FF39C0F3FF38C0DAFF37C07A
:1012D600D9FF36C0E2FF35C0E1FF34C0FBFF33C0A3
:1012E600FAFF64921100010E436E3B503C10D8B4D5
:1012F6007FEF09F081EF09F092EF09F03BC0D9FFCB
:101306003CC0DAFFDF30E832E832070B3D6E070EED
:101316003D6490EF09F092EF09F0F5EF09F0000E49
:10132600436E16EF0AF03BC0D9FF3CC0DAFFDF3050
:10133600E832E832070B3D6E010E3E6E3D2AA6EFFF
:1013460009F0D8903E363D2EA4EF09F03E50FF0A34
:101356003F6E3BC0D9FF3CC0DAFFDF50070B406E43
:101366004050020D150EF324D96E000EF420DA6EED
:10137600DECF41F0DDCF42F041C0D9FF42C0DAFFF7
:101386003F50DF1616EF0AF03BC0D9FF3CC0DAFF2C
:10139600DF30E832E832070B3D6E010E3E6E3D2A25
:1013A600D7EF09F0D8903E363D2ED5EF09F03BC079
:1013B600D9FF3CC0DAFFDF50070B3F6E3F50020DEE
:1013C600150EF324D96E000EF420DA6EDECF40F04F
:1013D600DDCF41F040C0D9FF41C0DAFF3E50DF12F9
:1013E60016EF0AF03BC0D9FF3CC0DAFFDFBCFEEFC8
:1013F60009F001EF0AF0010E02EF0AF0000E3D6E51
:101406003E6A3E50000AD8B40BEF0AF092EF09F09C
:101416003D50000AD8B496EF09F0010AD8B4C7EFD8
:1014260009F092EF09F043501200010E446E3B5052
:101436003C10D8B421EF0AF023EF0AF034EF0AF09B
:101446003BC0D9FF3CC0DAFFDF30E832E832070B99
:101456003E6E070E3E6432EF0AF034EF0AF097EF65
:101466000AF0000E446EACEF0AF03BC0D9FF3CC058
:10147600DAFFDF30E832E832070B3E6E010E3F6ED0
:101486003E2A48EF0AF0D8903F363E2E46EF0AF045
:101496003F50FF0A406E3BC0D9FF3CC0DAFFDF5029
:1014A600070B416E4150020D0B0EF324D96E000E50
:1014B600F420DA6EDECF42F0DDCF43F042C0D9FF32
:1014C60043C0DAFF4050DF16ACEF0AF03BC0D9FF4D
:1014D6003CC0DAFFDF30E832E832070B3E6E010E21
:1014E6003F6E3E2A79EF0AF0D8903F363E2E77EFD0
:1014F6000AF03BC0D9FF3CC0DAFFDF50070B406E55
:101506004050020D0B0EF324D96E000EF420DA6E55
:10151600DECF41F0DDCF42F041C0D9FF42C0DAFF55
:101526003F50DF12ACEF0AF03D503E6E3F6A3F502F
:10153600000AD8B4A1EF0AF034EF0AF03E50000AD0
:10154600D8B438EF0AF0010AD8B469EF0AF034EFDC
:101556000AF044501200010E3F6E1EEF0BF020EE13
:1015660001F03B50D9263C50DA22DF50D8A4BEEF1A
:101576000AF0C0EF0AF0C3EF0AF0F19C3DEF0BF062
:1015860020EE01F03B50D9263C50DA22DE04D8A4E6
:10159600CFEF0AF0D1EF0AF0D4EF0AF0F18C3DEF6D
:1015A6000BF03DEF0BF020EE01F03B50D9263C50FE
:1015B600DA22DF50D8A4E2EF0AF0E4EF0AF0E7EF10
:1015C6000AF0F19A3DEF0BF020EE01F03B50D926E0
:1015D6003C50DA22DE04D8A4F3EF0AF0F5EF0AF065
:1015E6003DEF0BF0F18A3DEF0BF020EE01F03B50A2
:1015F600D9263C50DA22DF50D8A404EF0BF006EFD0
:101606000BF009EF0BF0F1983DEF0BF020EE01F037
:101616003B50D9263C50DA22DE04D8A415EF0BF055
:1016260017EF0BF03DEF0BF0F1883DEF0BF0000EDE
:101636003F6E3DEF0BF020EE02F03B50D9263C50BA
:10164600DA22DF503D6E3E6A3E50000AD8B42EEFD5
:101656000BF01AEF0BF03D50000AD8B4B2EF0AF0C7
:10166600010AD8B4D6EF0AF0030AD8B4F8EF0AF0A4
:101676001AEF0BF03F501200010E3F6E6BEF0BF0AE
:1016860020EE04F03B50D9263C50DA22DECF60F043
:10169600DDCF61F08AEF0BF020EE04F03B50D92647
:1016A6003C50DA22DECF5EF0DDCF5FF08AEF0BF042
:1016B60020EE04F03B50D9263C50DA22DECF5CF017
:1016C600DDCF5DF08AEF0BF0000E3F6E8AEF0BF078
:1016D60020EE02F03B50D9263C50DA22DF503D6E18
:1016E6003E6A3E50000AD8B47BEF0BF067EF0BF072
:1016F6003D50000AD8B443EF0BF0010AD8B44FEFBF
:101706000BF0030AD8B45BEF0BF067EF0BF03F501A
:101716001200010E486EA6EF0BF0C150F00B030944
:10172600C16EC5EF0BF0C150F00B0509C16EC5EFD8
:101736000BF0C150F00B0709C16EC5EF0BF0000EA0
:10174600486EC5EF0BF020EE02F04450D926455006
:10175600DA22DF50466E476A4750000AD8B4B6EF21
:101766000BF0A2EF0BF04650000AD8B490EF0BF046
:10177600010AD8B496EF0BF0030AD8B49CEF0BF02D
:10178600A2EF0BF044C03BF045C03CF076EC09F00C
:1017960048124850120049504A10D8A4D5EF0BF011
:1017A600D7EF0BF0DBEF0BF0000E4B6E05EF0CF0F6
:1017B60049C03BF04AC03CF0A8EC0CF04B6E49C067
:1017C6003BF04AC03CF0DAEC0CF04B1249C03BF05F
:1017D6004AC03CF0AEEC0AF04B1249C044F04AC095
:1017E60045F08CEC0BF04B1249C03BF04AC03CF084
:1017F6003FEC0BF04B1249C03BF04AC03CF074EC96
:101806000CF04B124B501200F7EC0EF0030E3C6E30
:101816003B68620E3D6E000E3E6EA9EC0DF0636EE7
:101826006204D8A419EF0CF01BEF0CF01FEF0CF0BC
:1018360061EC0DF013EF0CF0020E6218D8A426EF3F
:101846000CF028EF0CF02CEF0CF03CEC0DF013EF45
:101856000CF02A0E456E000E466EFDEC0DF0636E22
:10186600290E456E000E466EFDEC0DF0636E13EF0D
:101876000CF007EF00F045504610D8B445EF0CF0D9
:1018860047EF0CF058EF0CF045C0D9FF46C0DAFF21
:10189600DF30E832E832070B476E070E476456EF33
:1018A6000CF058EF0CF05CEF0CF0000E486E72EF87
:1018B6000CF045C03BF046C03CF076EC09F0486EB3
:1018C60045C03BF046C03CF045C0D9FF46C0DAFFF4
:1018D600000EDFBE010E3D6E18EC0AF0486E485051
:1018E6001200010E3F6EF28EF28C87EF0CF0F2883A
:1018F600A6EF0CF0F086A6EF0CF0F088A6EF0CF041
:10190600000E3F6EA6EF0CF020EE02F03B50D926FB
:101916003C50DA22DF503D6E3E6A3E50000AD8B493
:1019260097EF0CF083EF0CF03D50000AD8B47AEF35
:101936000CF0010AD8B47DEF0CF0030AD8B480EF9E
:101946000CF083EF0CF03F501200010E3F6EB9EF22
:101956000CF0F298D8EF0CF0F096D8EF0CF0F09867
:10196600D8EF0CF0000E3F6ED8EF0CF020EE02F030
:101976003B50D9263C50DA22DF503D6E3E6A3E503F
:10198600000AD8B4C9EF0CF0B5EF0CF03D50000AD0
:10199600D8B4ACEF0CF0010AD8B4AFEF0CF0030AE0
:1019A600D8B4B2EF0CF0B5EF0CF03F501200010EB8
:1019B6003F6EEBEF0CF0F2920AEF0DF0F0900AEFAB
:1019C6000DF0F0920AEF0DF0000E3F6E0AEF0DF0EB
:1019D60020EE02F03B50D9263C50DA22DF503D6E15
:1019E6003E6A3E50000AD8B4FBEF0CF0E7EF0CF06D
:1019F6003D50000AD8B4DEEF0CF0010AD8B4E1EF8E
:101A06000CF0030AD8B4E4EF0CF0E7EF0CF03F500B
:101A16001200306E010E2F6E2B502C10D8B416EF1C
:101A26000DF018EF0DF020EF0DF0040E30641EEFF0
:101A36000DF020EF0DF024EF0DF0000E2F6E3AEFB3
:101A46000DF03050020D010EF324D96E000EF42075
:101A5600DA6EDECF2DF0DDCF2EF02DC0D9FF2EC0F1
:101A6600DAFF2BC0E1FF2CC0E2FFDFCFE7FF2F50EC
:101A76001200290E456E000E466EE5EC0DF0636E03
:101A8600020E496E450E486EAA0EE82EFED7482E67
:101A9600FCD7492EFAD7290E456E000E466EFDEC90
:101AA6000DF0636E020E496E450E486EAA0EE82EC4
:101AB600FED7482EFCD7492EFAD712002A0E456EBD
:101AC600000E466EE5EC0DF0636E020E496E450E95
:101AD600486EAA0EE82EFED7482EFCD7492EFAD716
:101AE6002A0E456E000E466EFDEC0DF0636E020E7C
:101AF600496E450E486EAA0EE82EFED7482EFCD734
:101B0600492EFAD71200000EF2BE010E2E6E2BC021
:101B1600A9FF2C50030BAA6E2DC0A8FFA69EA69C5B
:101B2600A684F29E550EA76EAA0EA76EA682A6B230
:101B36009FEF0DF0A1EF0DF09AEF0DF0A6942EB0E9
:101B460002D0F29E01D0F28E010E1200010E3F6EFF
:101B56003D503E10D8A4B2EF0DF0B4EF0DF0B8EF43
:101B66000DF0000E3F6EC8EF0DF03BC0A9FF3C50D4
:101B7600030BAA6EA69EA69CA68000F000F03DC0B0
:101B8600D9FF3EC0DAFFA8CFDFFF3F501200E00EBC
:101B9600F66E1C0EF76E000EF86E00EE01F010EEFB
:101BA6002AF00900F5CFEEFFE550E150FAE100EE2C
:101BB6004CF0170EEE6AE806FDE1649064920001AF
:101BC60007EF0CF045504610D8A4ECEF0DF0EEEF01
:101BD6000DF0F2EF0DF0000E476EFBEF0DF045C075
:101BE6003BF046C03CF0010E3D6E18EC0AF0476E25
:101BF6004750120045504610D8A404EF0EF006EFE9
:101C06000EF00AEF0EF0000E476E13EF0EF045C011
:101C16003BF046C03CF0000E3D6E18EC0AF0476EF5
:101C260047501200F0925C505D10D8B41DEF0EF0D4
:101C36001FEF0EF02BEF0EF002D82BEF0EF0050083
:101C4600FA6E5C50FD6E5D50FE6EFF6AFA50120031
:101C56001200F0905E505F10D8B434EF0EF036EFFD
:101C66000EF042EF0EF002D842EF0EF00500FA6ECB
:101C76005E50FD6E5F50FE6EFF6AFA501200120053
:101C8600F29260506110D8B44BEF0EF04DEF0EF0AB
:101C960059EF0EF002D859EF0EF00500FA6E6050BB
:101CA600FD6E6150FE6EFF6AFA5012001200495036
:101CB6004A10D8A461EF0EF063EF0EF067EF0EF056
:101CC600000E4B6E6EEF0EF049C045F04AC046F06E
:101CD6003EEC0CF04B6E4B501200800F810F820FC2
:101CE600830F840F890F8A0F8B0F8C0F8D0F920F26
:101CF600930F940F950F960F010101014101000109
:101D06000A1D0A02622A030E6218D8A48DEF0EF08D
:101D16008FEF0EF091EF0EF0000E626E030E2C6E3A
:101D26002B6862C02DF086EC0DF0636E1200326EE9
:101D3600310E2B6E000E2C6E010E0CEC0DF0F29097
:101D46003250D8A4A9EF0EF0ABEF0EF0ADEF0EF0C7
:101D5600ADEF0EF01200326E310E2B6E000E2C6EB1
:101D6600010E0CEC0DF0F2903250D8A4BDEF0EF03F
:101D7600BFEF0EF0C1EF0EF0C1EF0EF01200326EA3
:101D8600310E2B6E000E2C6E010E0CEC0DF0F29047
:101D96003250D8A4D1EF0EF0D3EF0EF0D5EF0EF0FF
:101DA600D5EF0EF01200326E310E2B6E000E2C6E39
:101DB600010E0CEC0DF0F2903250D8A4E5EF0EF0C7
:101DC600E7EF0EF0E9EF0EF0E9EF0EF012002A0E43
:101DD600496E000E4A6E5AEC0EF0290E496E000E40
:101DE6004A6E5AEC0EF01200EAEC0EF0230E496E23
:0C1DF600000E4A6ECEEC0BF0636E120083
:020000040020DA
:08000000FFFFFFFFFFFFFFFF00
:020000040030CA
:0E000000FF071F1FFF8385FF0FC00FE00F409B
:00000001FF
