:0400000007EF00F016
:0A0008006D820BED08F03CEF0EF0E6
:10100000003738392F3435362A3132332D23303DED
:051010002B2569000022
:101016000600FACF4EF0FBCF4FF0E1CF50F0E2CF13
:1010260051F0D9CF52F0DACF53F0F3CF54F0F4CFDA
:1010360055F0F2A821EF08F023EF08F02CEF08F0A6
:10104600F2A228EF08F02AEF08F02CEF08F003ECE4
:101056000FF0F0A631EF08F033EF08F03CEF08F0A0
:10106600F0A038EF08F03AEF08F03CEF08F001EC9A
:101076000FF0F0A841EF08F043EF08F04CEF08F04E
:10108600F0A248EF08F04AEF08F04CEF08F0FFEC4A
:101096000EF0F2A651EF08F053EF08F070EF08F0EB
:1010A600F2A058EF08F05AEF08F070EF08F081B898
:1010B6005FEF08F061EF08F070EF08F02204D8A4A3
:1010C60067EF08F069EF08F070EF08F0000E226E87
:1010D600000EA3EC0CF092EF08F0F2A675EF08F004
:1010E60077EF08F092EF08F0F2A07CEF08F07EEFC1
:1010F60008F092EF08F081A883EF08F085EF08F07A
:1011060092EF08F02250D8A48BEF08F08DEF08F08C
:1011160092EF08F0010E226E010EA3EC0CF0F2A67F
:1011260097EF08F099EF08F0B6EF08F0F2A09EEFFF
:1011360008F0A0EF08F0B6EF08F081BAA5EF08F0C6
:10114600A7EF08F0B6EF08F02104D8A4ADEF08F039
:10115600AFEF08F0B6EF08F0000E216E000E5DEC62
:101166000CF0D8EF08F0F2A6BBEF08F0BDEF08F0E0
:10117600D8EF08F0F2A0C2EF08F0C4EF08F0D8EFFD
:1011860008F081AAC9EF08F0CBEF08F0D8EF08F015
:101196002150D8A4D1EF08F0D3EF08F0D8EF08F02B
:1011A600010E216E010E5DEC0CF0F2A6DDEF08F0EB
:1011B600DFEF08F0FCEF08F0F2A0E4EF08F0E6EF4E
:1011C60008F0FCEF08F081BCEBEF08F0EDEF08F05B
:1011D600FCEF08F02004D8A4F3EF08F0F5EF08F0D0
:1011E600FCEF08F0000E206E000E17EC0CF01EEF60
:1011F60009F0F2A601EF09F003EF09F01EEF09F07E
:10120600F2A008EF09F00AEF09F01EEF09F081AC31
:101216000FEF09F011EF09F01EEF09F02050D8A4E6
:1012260017EF09F019EF09F01EEF09F0010E206E15
:10123600010E17EC0CF0F2A623EF09F025EF09F0EA
:1012460042EF09F0F2A02AEF09F02CEF09F042EF85
:1012560009F081BE31EF09F033EF09F042EF09F0F2
:101266001F04D8A439EF09F03BEF09F042EF09F06B
:10127600000E1F6E000ED1EC0BF064EF09F0F2A623
:1012860047EF09F049EF09F064EF09F0F2A04EEFDD
:1012960009F050EF09F064EF09F081AE55EF09F05F
:1012A60057EF09F064EF09F01F50D8A45DEF09F07D
:1012B6005FEF09F064EF09F0010E1F6E010ED1EC2D
:1012C6000BF055C0F4FF54C0F3FF53C0DAFF52C011
:1012D600D9FF51C0E2FF50C0E1FF4FC0FBFF4EC037
:1012E600FAFF6D921100010E0001886F8051811185
:1012F600D8B480EF09F082EF09F093EF09F080C0CF
:10130600D9FF81C0DAFFDF30E832E832070B826F9F
:10131600070E826591EF09F093EF09F0F8EF09F0F7
:10132600000E886F19EF0AF080C0D9FF81C0DAFF7E
:10133600DF30E832E832070B826F010E836F822BB3
:10134600A7EF09F0D8908337822FA5EF09F00001A7
:101356008351FF0A846F80C0D9FF81C0DAFFDF5056
:10136600070B856F8551020D150EF324D96E000EFD
:10137600F420DA6EDECF86F0DDCF87F086C0D9FFA7
:1013860087C0DAFF8451DF1619EF0AF080C0D9FF53
:1013960081C0DAFFDF30E832E832070B826F010ED8
:1013A600836F822BD9EF09F0D8908337822FD7EF3E
:1013B60009F080C0D9FF81C0DAFFDF50070B0001BA
:1013C600846F8451020D150EF324D96E000EF4209D
:1013D600DA6EDECF85F0DDCF86F085C0D9FF86C018
:1013E600DAFF8351DF1219EF0AF080C0D9FF81C0FE
:1013F600DAFFDFBC01EF0AF004EF0AF0010E05EF99
:101406000AF0000E826F836B8351000AD8B40EEF88
:101416000AF093EF09F08251000AD8B497EF09F069
:10142600010AD8B4C9EF09F093EF09F08851120008
:10143600010E0001896F80518111D8B425EF0AF0A1
:1014460027EF0AF038EF0AF080C0D9FF81C0DAFF33
:10145600DF30E832E832070B836F070E836536EF1D
:101466000AF038EF0AF09DEF0AF0000E896FB2EF2E
:101476000AF080C0D9FF81C0DAFFDF30E832E832F7
:10148600070B836F010E846F832B4CEF0AF0D89005
:101496008437832F4AEF0AF000018451FF0A856FD3
:1014A60080C0D9FF81C0DAFFDF50070B866F8651F7
:1014B600020D0B0EF324D96E000EF420DA6EDECF89
:1014C60087F0DDCF88F087C0D9FF88C0DAFF855165
:1014D600DF16B2EF0AF080C0D9FF81C0DAFFDF3035
:1014E600E832E832070B836F010E846F832B7EEFA1
:1014F6000AF0D8908437832F7CEF0AF080C0D9FF9A
:1015060081C0DAFFDF50070B0001856F8551020DA0
:101516000B0EF324D96E000EF420DA6EDECF86F0C1
:10152600DDCF87F086C0D9FF87C0DAFF8451DF128E
:10153600B2EF0AF08251836F846B8451000AD8B4EB
:10154600A7EF0AF038EF0AF08351000AD8B43CEF4F
:101556000AF0010AD8B46EEF0AF038EF0AF08951A2
:101566001200010E486E3F504010D8B4BDEF0AF08D
:10157600BFEF0AF0D0EF0AF03FC0D9FF40C0DAFF54
:10158600DF30E832E832070B426E070E4264CEEFD8
:101596000AF0D0EF0AF033EF0BF0000E486E48EF7A
:1015A6000BF03FC0D9FF40C0DAFFDF30E832E83247
:1015B600070B426E010E436E422AE4EF0AF0D89002
:1015C6004336422EE2EF0AF04350FF0A446E3FC014
:1015D600D9FF40C0DAFFDF50070B456E4550020DBC
:1015E6000B0EF324D96E000EF420DA6EDECF46F031
:1015F600DDCF47F046C0D9FF47C0DAFF4450DF16BB
:1016060048EF0BF03FC0D9FF40C0DAFFDF30E832C9
:10161600E832070B426E010E436E422A15EF0BF0BD
:10162600D8904336422E13EF0BF03FC0D9FF40C08F
:10163600DAFFDF50070B446E4450020D0B0EF32405
:10164600D96E000EF420DA6EDECF45F0DDCF46F01F
:1016560045C0D9FF46C0DAFF4350DF1248EF0BF012
:101666004150426E436A4350000AD8B43DEF0BF036
:10167600D0EF0AF04250000AD8B4D4EF0AF0010ABB
:10168600D8B405EF0BF0D0EF0AF048501200010E67
:101696000001846FABEF0BF020EE02F08051D926EB
:1016A6008151DA22DECF64F0DDCF65F020EE04F062
:1016B6008051D9268151DA22DECF62F0DDCF63F088
:1016C600CFEF0BF020EE02F08051D9268151DA22BD
:1016D600DECF60F0DDCF61F020EE04F08051D92638
:1016E6008151DA22DECF5EF0DDCF5FF0CFEF0BF077
:1016F60020EE02F08051D9268151DA22DECF5CF04D
:10170600DDCF5DF020EE04F08051D9268151DA223A
:10171600DECF5AF0DDCF5BF0CFEF0BF020EE02F01C
:101726008051D9268151DA22DECF58F0DDCF59F02B
:1017360020EE04F08051D9268151DA22DECF56F010
:10174600DDCF57F0CFEF0BF0000E846FCFEF0BF02D
:1017560080C0D9FF81C0DAFFDF30E832E832070BFC
:10176600826F836B8351000AD8B4BCEF0BF0A7EFEE
:101776000BF08251040AD8B44FEF0BF0010AD8B42B
:1017860065EF0BF0030AD8B47BEF0BF0010AD8B46F
:1017960091EF0BF0A7EF0BF0845112004C6E4D0E3B
:1017A6003F6E000E406E010E8CEC0DF0F2904C5028
:1017B600D8A4E0EF0BF0E2EF0BF0F9EF0BF0585086
:1017C6005910D8B4E9EF0BF0EBEF0BF016EF0CF075
:1017D60002D8F7EF0BF00500FA6E5850FD6E59501F
:1017E600FE6EFF6AFA50120016EF0CF04C04D8A4F5
:1017F600FFEF0BF001EF0CF016EF0CF05650571000
:10180600D8B408EF0CF00AEF0CF016EF0CF002D883
:1018160016EF0CF00500FA6E5650FD6E5750FE6E30
:10182600FF6AFA50120012004C6E4D0E3F6E000E0B
:10183600406E010E8CEC0DF0F2904C50D8A426EFC1
:101846000CF028EF0CF03FEF0CF05C505D10D8B4B4
:101856002FEF0CF031EF0CF05CEF0CF002D83DEFFF
:101866000CF00500FA6E5C50FD6E5D50FE6EFF6A70
:10187600FA5012005CEF0CF04C04D8A445EF0CF0C3
:1018860047EF0CF05CEF0CF05A505B10D8B44EEFFB
:101896000CF050EF0CF05CEF0CF002D85CEF0CF0A3
:1018A6000500FA6E5A50FD6E5B50FE6EFF6AFA50E6
:1018B600120012004C6E4D0E3F6E000E406E010E71
:1018C6008CEC0DF0F2904C50D8A46CEF0CF06EEF4F
:1018D6000CF085EF0CF060506110D8B475EF0CF089
:1018E60077EF0CF0A2EF0CF002D883EF0CF00500B6
:1018F600FA6E6050FD6E6150FE6EFF6AFA5012007D
:10190600A2EF0CF04C04D8A48BEF0CF08DEF0CF08A
:10191600A2EF0CF05E505F10D8B494EF0CF096EF87
:101926000CF0A2EF0CF002D8A2EF0CF00500FA6E54
:101936005E50FD6E5F50FE6EFF6AFA501200120096
:101946004C6E4D0E3F6E000E406E010E8CEC0DF08F
:10195600F2904C50D8A4B2EF0CF0B4EF0CF0CBEFF1
:101966000CF064506510D8B4BBEF0CF0BDEF0CF072
:10197600E8EF0CF002D8C9EF0CF00500FA6E6450DF
:10198600FD6E6550FE6EFF6AFA501200E8EF0CF02D
:101996004C04D8A4D1EF0CF0D3EF0CF0E8EF0CF028
:1019A60062506310D8B4DAEF0CF0DCEF0CF0E8EF1D
:1019B6000CF002D8E8EF0CF00500FA6E6250FD6EEE
:1019C6006350FE6EFF6AFA501200120000018A513F
:1019D6008B11D8B4F1EF0CF0F3EF0CF004EF0DF02F
:1019E6008AC0D9FF8BC0DAFFDF30E832E832070B56
:1019F6008C6F070E8C6502EF0DF004EF0DF008EF0B
:101A06000DF0000E8D6F20EF0DF08AC080F08BC0B8
:101A160081F076EC09F000018D6F8AC080F08BC0F2
:101A260081F08AC0D9FF8BC0DAFF000EDFBE010E3F
:101A3600826F1BEC0AF000018D6F8D5112000001C0
:101A46008C518D11D8A42AEF0DF02CEF0DF030EF4C
:101A56000DF0000E8E6F58EF0DF08CC080F08DC02B
:101A660081F0AFEC0EF000018E6F8CC086F08DC059
:101A760087F09FEC0EF000018E138CC089F08DC0AC
:101A86008AF001EC0EF000018E138CC080F08DC040
:101A960081F04AEC0BF000018E138CC080F08DC0F3
:101AA60081F0F7EC0EF000018E138E51120000014A
:101AB600856F010E0001846F80518111D8B466EFE5
:101AC6000DF068EF0DF070EF0DF0040E85656EEF0A
:101AD6000DF070EF0DF074EF0DF0000E846F8AEFCD
:101AE6000DF08551020D010EF324D96E000EF4207F
:101AF600DA6EDECF82F0DDCF83F082C0D9FF83C0FD
:101B0600DAFF80C0E1FF81C0E2FFDFCFE7FF84514B
:101B16001200446E010E436E3F504010D8B496EF4B
:101B26000DF098EF0DF0A0EF0DF0040E44649EEF5B
:101B36000DF0A0EF0DF0A4EF0DF0000E436EBAEF1E
:101B46000DF04450020D010EF324D96E000EF42060
:101B5600DA6EDECF41F0DDCF42F041C0D9FF42C0A0
:101B6600DAFF3FC0E1FF40C0E2FFDFCFE7FF4350AF
:101B76001200FCEC0EF0350E00018C6F000E8D6F1E
:101B860022EC0DF06C6E2F0E00018C6F000E8D6F27
:101B960022EC0DF06C6E290E00018C6F000E8D6F1D
:101BA60022EC0DF06C6E230E00018C6F000E8D6F13
:101BB60022EC0DF06C6EDEEF0DF007EF00F0800FFB
:101BC600810F820F830F840F890F8A0F8B0F8C0F63
:101BD6008D0F920F930F940F950F960F0101010130
:101BE60079019E1DDE1D71016E1DAE1D69007E1DF3
:101BF600BE1D61018E1DCE1D1A120A0289C0D9FFB3
:101C06008AC0DAFFDF30E832E832070B040AD8A4CC
:101C16000FEF0EF011EF0EF015EF0EF0C150F00BB6
:101C26000409C16E89C080F08AC081F076EC09F0A3
:101C360000018B6F8B5112003E0E00018E6F000E5D
:101C46008F6F57EC0EF03D0E00018E6F000E8F6FFA
:101C560057EC0EF03C0E00018E6F000E8F6F57ECA6
:101C66000EF03B0E00018E6F000E8F6F57EC0EF0DC
:101C76001200C40EF66E1B0EF76E000EF86E00EE26
:101C860001F010EE3EF00900F5CFEEFFE550E15011
:101C9600FAE100EE56F0160EEE6AE806FDE16D90EA
:101CA6006D920001BCEF0DF000018E518F11D8A48A
:101CB6005FEF0EF061EF0EF065EF0EF0000E906F25
:101CC6006DEF0EF08EC08AF08FC08BF0E9EC0CF051
:101CD6000001906F9051120049504A10D8A476EF37
:101CE6000EF078EF0EF07CEF0EF0000E4B6E85EFE7
:101CF6000EF049C03FF04AC040F0000E416EB4EC11
:101D06000AF04B6E4B50120049504A10D8A48EEF81
:101D16000EF090EF0EF094EF0EF0000E4B6E9DEF6E
:101D26000EF049C03FF04AC040F0010E416EB4ECDF
:101D36000AF04B6E4B501200890E0001806F000EA8
:101D4600816F010E5AEC0DF0F290000EF2B0010E0A
:101D56000001886F88511200F296000EF2B6010E4D
:101D66000001826F825112003C0E496E000E4A6ECF
:101D76006FEC0EF06C6E12003D0E496E000E4A6E50
:101D86006FEC0EF06C6E12003E0E496E000E4A6E3F
:101D96006FEC0EF06C6E12003B0E496E000E4A6E32
:101DA6006FEC0EF06C6E12003C0E496E000E4A6E21
:101DB60087EC0EF06C6E12003D0E496E000E4A6EF8
:101DC60087EC0EF06C6E12003E0E496E000E4A6EE7
:101DD60087EC0EF06C6E12003B0E496E000E4A6EDA
:101DE60087EC0EF06C6E1200F286F28EF28C010E0B
:101DF60012001FEC0EF01200F0921200F09012008A
:041E0600F292120042
:020000040020DA
:08000000FFFFFFFFFFFFFFFF00
:020000040030CA
:0E000000FF071F1FFF8385FF0FC00FE00F409B
:00000001FF
