:0400000023EF00F0FA
:060008006D8213ED0AF009
:100018006D80E0CF69F0F0A614EF00F016EF00F065
:100028001FEF00F0F0A01BEF00F01DEF00F01FEF36
:1000380000F026EC0DF069C0E0FF6D901000E0EFD5
:020048000BF0BB
:10100000003738392F3435362A3132332D23303DED
:051010002B2569000022
:10101600010E0001976F6A506B10D8B415EF08F0F7
:1010260017EF08F028EF08F06AC0D9FF6BC0DAFFA7
:10103600DF30E832E832070B916F070E916526EF35
:1010460008F028EF08F08DEF08F0000E976FAEEF6E
:1010560008F06AC0D9FF6BC0DAFFDF30E832E83249
:10106600070B916F010E926F912B3CEF08F0D89011
:101076009237912F3AEF08F000019251FF0A936FD1
:101086006AC0D9FF6BC0DAFFDF50070B946F94512B
:10109600020D150EF324D96E000EF420DA6EDECFA3
:1010A60095F0DDCF96F095C0D9FF96C0DAFF935143
:1010B600DF16AEEF08F06AC0D9FF6BC0DAFFDF308B
:1010C600E832E832070B916F010E926F912B6EEFAB
:1010D60008F0D8909237912F6CEF08F06AC0D9FFCC
:1010E6006BC0DAFFDF50070B0001936F9351020DBF
:1010F600150EF324D96E000EF420DA6EDECF94F0CE
:10110600DDCF95F094C0D9FF95C0DAFF9251DF127A
:10111600AEEF08F06AC0D9FF6BC0DAFFDFBC96EF0E
:1011260008F099EF08F0010E9AEF08F0000E916FA3
:10113600926B9251000AD8B4A3EF08F028EF08F09A
:101146009151000AD8B42CEF08F0010AD8B45EEF2A
:1011560008F028EF08F097511200010E6A6E0001A0
:1011660091519211D8B4BAEF08F0BCEF08F0CDEF68
:1011760008F091C0D9FF92C0DAFFDF30E832E832DA
:10118600070B946F070E9465CBEF08F0CDEF08F0D0
:1011960032EF09F0000E6A6E47EF09F091C0D9FFF1
:1011A60092C0DAFFDF30E832E832070B946F010EA7
:1011B600956F942BE1EF08F0D8909537942FDFEFD9
:1011C60008F000019551FF0A966F91C0D9FF92C0B1
:1011D600DAFFDF50070B976F9751020D0B0EF324C2
:1011E600D96E000EF420DA6EDECF98F0DDCF99F0DE
:1011F60098C0D9FF99C0DAFF9651DF1647EF09F07C
:1012060091C0D9FF92C0DAFFDF30E832E832070B2F
:10121600946F010E956F942B13EF09F0D8909537C4
:10122600942F11EF09F091C0D9FF92C0DAFFDF5079
:10123600070B0001966F9651020D0B0EF324D96E23
:10124600000EF420DA6EDECF97F0DDCF98F097C06F
:10125600D9FF98C0DAFF9551DF1247EF09F0935195
:10126600946F956B9551000AD8B43CEF09F0CDEF19
:1012760008F09451000AD8B4D1EF08F0010AD8B4A6
:1012860003EF09F0CDEF08F06A501200010E0001DD
:101296009E6F9B519C11D8A453EF09F055EF09F0AE
:1012A60059EF09F0000E9E6FB0EF09F0CD909BC08C
:1012B60098F09CC099F0BCEC0AF09BC06AF09CC008
:1012C6006BF001EC0CF0000120EE03F09B51D926E7
:1012D6009C51DA22DF509D6F9D3BCD509D19CF0B5F
:1012E6009D19CD6E20EE04F09B51D9269C51DA2231
:1012F600DECF6AF0DDCF6BF0ECEC0CF09BC0D9FFD3
:101306009CC0DAFFDECF3AF0DDCF3BF09D809E90A9
:10131600D08E000120EE02F09B51D9269C51DA2294
:10132600DE04D8A499EF09F09BEF09F09FEF09F0CE
:10133600F28E9F80AFEF09F020EE02F09B51D92686
:101346009C51DA22DF50D8A4ABEF09F0ADEF09F0DB
:10135600AFEF09F0F28C9F90CD809E511200010EE6
:1013660000019E6F9B519C11D8A4BCEF09F0BEEF03
:1013760009F0C2EF09F0000E9E6F11EF0AF0D59E3C
:101386009BC098F09CC099F002EC0BF09BC06AF0F1
:101396009CC06BF020EC0CF09BC06AF09CC06BF01C
:1013A600B3EC0BF0000120EE04F09B51D9269C51C2
:1013B600DA22DECF6AF0DDCF6BF0F5EC0CF09BC0E5
:1013C600D9FF9CC0DAFFDECF3EF0DDCF3FF0F28AD8
:1013D600F294D08E000120EE02F09B51D9269C514A
:1013E600DA22DE04D8A4FAEF09F0FCEF09F000EFE8
:1013F6000AF0F28EF18410EF0AF020EE02F09B5113
:10140600D9269C51DA22DF50D8A40CEF0AF00EEF51
:101416000AF010EF0AF0F28CF194D58E9E5112006C
:101426000600FACF63F0FBCF64F0D9CF65F0DACFD0
:1014360066F0F3CF67F0F4CF68F0F2A825EF0AF074
:1014460027EF0AF030EF0AF0F2A22CEF0AF02EEFA7
:101456000AF030EF0AF02AEC0DF0F0A835EF0AF0AA
:1014660037EF0AF040EF0AF0F0A23CEF0AF03EEF49
:101476000AF040EF0AF028EC0DF0F2AA45EF0AF068
:1014860047EF0AF050EF0AF0F2A44CEF0AF04EEFE5
:101496000AF050EF0AF05DEC0CF09DA055EF0AF053
:1014A60057EF0AF060EF0AF09EA05CEF0AF05EEFDD
:1014B6000AF060EF0AF018EC0DF068C0F4FF67C0A0
:1014C600F3FF66C0DAFF65C0D9FF64C0FBFF63C0E7
:1014D600FAFF6D921100010E5F6E58505910D8B484
:1014E60077EF0AF079EF0AF08AEF0AF058C0D9FFD1
:1014F60059C0DAFFDF30E832E832070B5A6E070EC2
:101506005A6488EF0AF08AEF0AF08EEF0AF0000EAE
:101516005F6EBAEF0AF058C0D9FF59C0DAFFDF3064
:10152600E832E832070B5A6E010E5B6E5A2A9EEFBE
:101536000AF0D8905B365A2E9CEF0AF058C0D9FFB5
:1015460059C0DAFFDF50070B5C6E5C50020D0B0EC4
:10155600F324D96E000EF420DA6EDECF5DF0DDCF17
:101566005EF05DC0D9FF5EC0DAFF5B50DF1A5F50E8
:101576001200000120EE06F09851D9269951DA2280
:10158600DFB0C8EF0AF0CAEF0AF0CDEF0AF0CD924D
:1015960001EF0BF020EE06F09851D9269951DA2288
:1015A600DFA0D8EF0AF0DAEF0AF001EF0BF0CD82F8
:1015B60020EE06F09851D9269951DA22DFB2E6EFED
:1015C6000AF0E8EF0AF0EBEF0AF0CD94F9EF0AF033
:1015D60020EE06F09851D9269951DA22DFA2F6EFCD
:1015E6000AF0F8EF0AF0F9EF0AF0CD841FC09AF07E
:1015F6009A0E6A6E000E6B6E0BEC08F0120000017C
:1016060020EE06F09851D9269951DA22DFB00EEF76
:101616000BF010EF0BF013EF0BF0D59A47EF0BF032
:1016260020EE06F09851D9269951DA22DFA01EEF56
:101636000BF020EF0BF047EF0BF0D58A20EE06F00B
:101646009851D9269951DA22DFA62CEF0BF02EEF0E
:101656000BF031EF0BF0D5983FEF0BF020EE06F0D4
:101666009851D9269951DA22DFB63CEF0BF03EEFBE
:101676000BF03FEF0BF0D58820C09AF09A0E6A6EF9
:10168600000E6B6E0BEC08F0120000019A519B11D4
:10169600D8B450EF0BF052EF0BF063EF0BF09AC09B
:1016A600D9FF9BC0DAFFDF30E832E832070B9C6FC8
:1016B600070E9C6561EF0BF063EF0BF067EF0BF025
:1016C600000E9D6F7FEF0BF09AC06AF09BC06BF027
:1016D6000BEC08F000019D6F9AC091F09BC092F050
:1016E6009AC0D9FF9BC0DAFF000EDFBE010E936FD2
:1016F600B0EC08F000019D6F9D511200010E5E6E68
:10170600000E606E58505910D8B48CEF0BF08EEF67
:101716000BF097EF0BF05A505B10D8A495EF0BF037
:1017260097EF0BF09BEF0BF0000E5E6EB1EF0BF038
:10173600CECF5FF0CFCF60F05F5060C05CF05D6AE7
:101746005CC05DF05C6A5C26000E5D225AC0D9FF63
:101756005BC0DAFF5CC0DEFF5DC0DDFF5E501200DD
:1017660020EE06F06A50D9266B50DA22DFB4BEEFBF
:101776000BF0C0EF0BF0C3EF0BF0D586DFEF0BF0ED
:1017860020EE06F06A50D9266B50DA22DFA4CEEF9F
:101796000BF0D0EF0BF0DFEF0BF0D59620EE03F059
:1017A6006A50D9266B50DA22DF500001916FD5506E
:1017B6009119F80B9119D56E1200F40EF66E180EEB
:1017C600F76E000EF86E00EE01F010EE33F0090031
:1017D600F5CFEEFFE550E150FAE100EE80F0110E94
:1017E600EE6AE806FDE100EE34F0240EEE6AE80645
:1017F600FDE16D906D92000120EF0DF020EE06F0F8
:101806006A50D9266B50DA22DFB60CEF0CF00EEFD9
:101816000CF011EF0CF0CD9E1FEF0CF020EE06F051
:101826006A50D9266B50DA22DFA61CEF0CF01EEFA9
:101836000CF01FEF0CF0CD8E120020EE06F06A5071
:10184600D9266B50DA22DFA22BEF0CF02DEF0CF02D
:1018560030EF0CF0D58C3EEF0CF020EE06F06A501F
:10186600D9266B50DA22DFB23BEF0CF03DEF0CF0DD
:101876003EEF0CF0D59C1200330E606E000E616ECA
:10188600C3EC0CF06C6E250E586E000E596E560E9B
:101896005A6E000E5B6E81EC0BF06C6E250E5A6E66
:1018A600000E5B6E000E5D6E000E5C6EACEC0CF016
:1018B6006C6E1200F2943CC058F03DC059F0FEEC3C
:1018C6000CF03E503F10D8B46BEF0CF06DEF0CF0FF
:1018D60079EF0CF002D879EF0CF00500FA6E3E5065
:1018E600FD6E3F50FE6EFF6AFA5012001200800F26
:1018F600810F820F830F840F890F8A0F8B0F8C0F36
:101906008D0F920F930F940F950F960F4260010162
:101916000101000001000000097E180103DC0B0430
:0119260003BD
:1019280000019E519F11D8A49CEF0CF09EEF0CF083
:10193800A2EF0CF0000EA06FAAEF0CF09EC09AF078
:101948009FC09BF048EC0BF00001A06FA051120063
:10195800010E5E6E5A505B10D8A4B5EF0CF0B7EFCD
:101968000CF0BBEF0CF0000E5E6EC1EF0CF05CC02B
:1019780058F05DC059F007EC0DF05E501200605051
:101988006110D8A4CAEF0CF0CCEF0CF0D0EF0CF03B
:10199800000E626ED7EF0CF060C058F061C059F0CD
:1019A8006EEC0AF0626E6250120010EC0DF02C0E14
:1019B80000019B6F000E9C6FB2EC09F06C6E250E57
:1019C80000019B6F000E9C6F49EC09F06C6E1200D1
:1019D8006B50CF6E6AC0CEFF6AC038F06BC039F06A
:1019E80012006B50D76E6AC0D6FF6AC03CF06BC05D
:1019F8003DF012005950D76E58C0D6FF58C03CF081
:101A080059C03DF012005950CF6E58C0CEFF58C093
:101A180038F059C039F01200330E00019E6F000EE5
:101A28009F6F94EC0CF012009E9038C058F039C0AB
:101A380059F007EC0DF01200D9EC0CF022EF0DF084
:101A480023EF00F0F0901200F0921200F2921200D0
:020000040020DA
:08000000FFFFFFFFFFFFFFFF00
:020000040030CA
:0E000000FF071F1FFF8385FF0FC00FE00F409B
:00000001FF
