:040000005DEF7DF043
:10FA7A00210E316E000E326E72EC7DF0366E1F0E64
:10FA8A00316E000E326E72EC7DF0366E1200800F0F
:10FA9A00810F820F830F840F890F8A0F8B0F8C0FB0
:10FAAA008D0F920F930F940F950F960F121A020A49
:10FABA00980EF66EFA0EF76E000EF86E00EE01F072
:10FACA0010EE22F00900F5CFEEFFE550E150FAE121
:10FADA00000EF86E0001C2EF7EF031503210D8A449
:10FAEA0079EF7DF07BEF7DF07FEF7DF0000E336ED6
:10FAFA008FEF7DF031C02DF032C02EF0F6EC7DF0A4
:10FB0A00336E010E31242D6E000E32202E6EF6EC6D
:10FB1A007DF0336E3350120031503210D8A498EF72
:10FB2A007DF09AEF7DF09EEF7DF0000E336EAEEF22
:10FB3A007DF031C02DF032C02EF0F6EC7DF0336E40
:10FB4A00010E31242D6E000E32202E6EF6EC7DF061
:10FB5A00336E335012002D502E10D8A4B7EF7DF01B
:10FB6A00B9EF7DF0BDEF7DF0000E2F6ED1EF7DF085
:10FB7A002DC023F02EC024F0000E256E2CEC7EF052
:10FB8A002F6E010E2D24236E000E2E20246E010EE0
:10FB9A00256E2CEC7EF02F6E2F5012002D502E1059
:10FBAA00D8A4DAEF7DF0DCEF7DF0E0EF7DF0000E17
:10FBBA002F6EF4EF7DF02DC023F02EC024F0010E3D
:10FBCA00256E2CEC7EF02F6E010E2D24236E000E76
:10FBDA002E20246E000E256E2CEC7EF02F6E2F50F8
:10FBEA0012002D502E10D8B4FDEF7DF0FFEF7DF0FE
:10FBFA0010EF7EF02DC0D9FF2EC0DAFFDF30E832D9
:10FC0A00E832070B2F6E070E2F640EEF7EF010EF0F
:10FC1A007EF014EF7EF0000E306E2AEF7EF02DC0DB
:10FC2A0023F02EC024F05EEC7FF0306E2DC023F05E
:10FC3A002EC024F02DC0D9FF2EC0DAFF000EDFBE81
:10FC4A00010E256E2CEC7EF0306E30501200010E43
:10FC5A002C6E23502410D8B435EF7EF037EF7EF0A7
:10FC6A0048EF7EF023C0D9FF24C0DAFFDF30E83244
:10FC7A00E832070B266E070E266446EF7EF048EF41
:10FC8A007EF0ABEF7EF0000E2C6EC0EF7EF023C04C
:10FC9A00D9FF24C0DAFFDF30E832E832070B266EDC
:10FCAA00010E276E262A5CEF7EF0D8902736262E84
:10FCBA005AEF7EF02750FF0A286E23C0D9FF24C0CE
:10FCCA00DAFFDF50070B296E2950020D0B0EF324C1
:10FCDA00D96E000EF420DA6EDECF2AF0DDCF2BF0DB
:10FCEA002AC0D9FF2BC0DAFF2850DF16C0EF7EF0FA
:10FCFA0023C0D9FF24C0DAFFDF30E832E832070B2D
:10FD0A00266E010E276E262A8DEF7EF0D8902736B2
:10FD1A00262E8BEF7EF023C0D9FF24C0DAFFDF50F6
:10FD2A00070B286E2850020D0B0EF324D96E000E15
:10FD3A00F420DA6EDECF29F0DDCF2AF029C0D9FF10
:10FD4A002AC0DAFF2750DF12C0EF7EF02550266E58
:10FD5A00276A2750000AD8B4B5EF7EF048EF7EF044
:10FD6A002650000AD8B44CEF7EF0010AD8B47DEFD1
:10FD7A007EF048EF7EF02C5012003DEC7DF0210E13
:10FD8A002D6E000E2E6ED3EC7DF0366E1F0E2D6E8C
:10FD9A00000E2E6ED3EC7DF0366E0B0E356E260EEF
:10FDAA00346E5E0EE82EFED7342EFCD7352EFAD7E7
:10FDBA00210E2D6E000E2E6EB0EC7DF0366E1F0EEB
:10FDCA002D6E000E2E6EB0EC7DF0366E0B0E356E7B
:10FDDA00260E346E5E0EE82EFED7342EFCD7352E54
:10FDEA00FAD7210E316E000E326E91EC7DF0366E2E
:10FDFA001F0E316E000E326E91EC7DF0366E0B0ED8
:10FE0A00356E260E346E5E0EE82EFED7342EFCD7E3
:10FE1A00352EFAD7210E2D6E000E2E6ED3EC7DF004
:10FE2A00366E1F0E2D6E000E2E6EB0EC7DF0366E05
:10FE3A000B0E356E260E346E5E0EE82EFED7342E6D
:10FE4A00FCD7352EFAD7210E316E000E326E91ECA8
:10FE5A007DF0366E1F0E316E000E326E91EC7DF023
:10FE6A00366E0B0E356E260E346E5E0EE82EFED7FB
:10FE7A00342EFCD7352EFAD7210E2D6E000E2E6E9B
:10FE8A00B0EC7DF0366E1F0E2D6E000E2E6ED3EC8A
:10FE9A007DF0366E0B0E356E260E346E5E0EE82E33
:10FEAA00FED7342EFCD7352EFAD7C4EF7EF000EFFA
:10FEBA0000F0010E2B6E23502410D8B467EF7FF0A8
:10FECA0069EF7FF07AEF7FF023C0D9FF24C0DAFF11
:10FEDA00DF30E832E832070B256E070E256478EF2B
:10FEEA007FF07AEF7FF0DDEF7FF0000E2B6EFEEFF2
:10FEFA007FF023C0D9FF24C0DAFFDF30E832E832CE
:10FF0A00070B256E010E266E252A8EEF7FF0D890FC
:10FF1A002636252E8CEF7FF02650FF0A276E23C047
:10FF2A00D9FF24C0DAFFDF50070B286E2850020DD4
:10FF3A00150EF324D96E000EF420DA6EDECF29F006
:10FF4A00DDCF2AF029C0D9FF2AC0DAFF2750DF16F1
:10FF5A00FEEF7FF023C0D9FF24C0DAFFDF30E8329A
:10FF6A00E832070B256E010E266E252ABFEF7FF0B9
:10FF7A00D8902636252EBDEF7FF023C0D9FF24C0A6
:10FF8A00DAFFDF50070B276E2750020D150EF324F8
:10FF9A00D96E000EF420DA6EDECF28F0DDCF29F01C
:10FFAA0028C0D9FF29C0DAFF2650DF12FEEF7FF002
:10FFBA0023C0D9FF24C0DAFFDFBCE6EF7FF0E9EF08
:10FFCA007FF0010EEAEF7FF0000E256E266A2650BA
:10FFDA00000AD8B4F3EF7FF07AEF7FF02550000AD9
:10FFEA00D8B47EEF7FF0010AD8B4AFEF7FF07AEF92
:06FFFA007FF02B50120005
:020000040020DA
:08000000FFFFFFFFFFFFFFFF00
:020000040030CA
:0E000000FF071F1FFF8385FF0FC00FE00F409B
:00000001FF
