:04000000CDEF0AF046
:10100000003738392F3435362A3132332D23303DED
:101010002B00010E306E28502910D8B412EF08F0C2
:1010200014EF08F025EF08F028C0D9FF29C0DAFF37
:10103000DF30E832E832070B2A6E070E2A6423EF0E
:1010400008F025EF08F088EF08F0000E306EA9EFE9
:1010500008F028C0D9FF29C0DAFFDF30E832E832D3
:10106000070B2A6E010E2B6E2A2A39EF08F0D89052
:101070002B362A2E37EF08F02B50FF0A2C6E28C093
:10108000D9FF29C0DAFFDF50070B2D6E2D50020D5E
:10109000150EF324D96E000EF420DA6EDECF2EF09A
:1010A000DDCF2FF02EC0D9FF2FC0DAFF2C50DF1676
:1010B000A9EF08F028C0D9FF29C0DAFFDF30E832F5
:1010C000E832070B2A6E010E2B6E2A2A6AEF08F00F
:1010D000D8902B362A2E68EF08F028C0D9FF29C0F7
:1010E000DAFFDF50070B2C6E2C50020D150EF32487
:1010F000D96E000EF420DA6EDECF2DF0DDCF2EF0AB
:101100002DC0D9FF2EC0DAFF2B50DF12A9EF08F057
:1011100028C0D9FF29C0DAFFDFBC91EF08F094EFB7
:1011200008F0010E95EF08F0000E2A6E2B6A2B5086
:10113000000AD8B49EEF08F025EF08F02A50000A04
:10114000D8B429EF08F0010AD8B45AEF08F025EF17
:1011500008F030501200010E316E28502910D8B41A
:10116000B4EF08F0B6EF08F0C7EF08F028C0D9FFD9
:1011700029C0DAFFDF30E832E832070B2B6E070EAA
:101180002B64C5EF08F0C7EF08F02AEF09F0000E56
:10119000316E3FEF09F028C0D9FF29C0DAFFDF30F8
:1011A000E832E832070B2B6E010E2C6E2B2ADBEF98
:1011B00008F0D8902C362B2ED9EF08F02C50FF0ACF
:1011C0002D6E28C0D9FF29C0DAFFDF50070B2E6E25
:1011D0002E50020D0B0EF324D96E000EF420DA6EA1
:1011E000DECF2FF0DDCF30F02FC0D9FF30C0DAFFD7
:1011F0002D50DF163FEF09F028C0D9FF29C0DAFFD4
:10120000DF30E832E832070B2B6E010E2C6E2B2AF2
:101210000CEF09F0D8902C362B2E0AEF09F028C0DD
:10122000D9FF29C0DAFFDF50070B2D6E2D50020DBC
:101230000B0EF324D96E000EF420DA6EDECF2EF002
:10124000DDCF2FF02EC0D9FF2FC0DAFF2C50DF12D8
:101250003FEF09F02A502B6E2C6A2C50000AD8B4AC
:1012600034EF09F0C7EF08F02B50000AD8B4CBEFE9
:1012700008F0010AD8B4FCEF08F0C7EF08F03150CD
:101280001200000E3B6E000E3C6E000E3A6E000E19
:10129000396E32503310D8B450EF09F052EF09F0E4
:1012A0005BEF09F034503510D8A459EF09F05BEF2B
:1012B00009F05FEF09F0000E386EC6EF09F0000E7E
:1012C0003B6E000E3A6E3A503224286E000E3320E8
:1012D000296E000E2A6EABEC08F03A2A030E3A642F
:1012E00074EF09F076EF09F063EF09F03B50322418
:1012F000286E000E3320296E010E2A6EABEC08F02A
:10130000000E3C6E3C503224366E000E3320376E99
:10131000040E3624286E000E3720296E390E2A6EF0
:10132000000E2B6EC8EC09F0386E3904D8A49BEF80
:1013300009F09DEF09F0B4EF09F03B50040D010EE8
:10134000F324366E100EF420376E3C503626000E15
:10135000372236C0F6FF37C0F7FF34C0D9FF35C09B
:10136000DAFF0800F5CFDFFF3C2A030E3C64BBEF39
:1013700009F0BDEF09F082EF09F03B2A030E3B6450
:10138000C4EF09F0C6EF09F061EF09F03850120020
:10139000010E316E28502910D8B4D1EF09F0D3EFE7
:1013A00009F0EDEF09F02A502B10D8B4DAEF09F06C
:1013B000DCEF09F0EDEF09F028C0D9FF29C0DAFF12
:1013C000DF30E832E832070B2C6E070E2C64EBEFAF
:1013D00009F0EDEF09F0F1EF09F0000E316E22EFA8
:1013E0000AF028C0D9FF29C0DAFFDF30E832E8323E
:1013F000070B2C6E28C0D9FF29C0DAFFDF50070B7E
:101400002D6E2D50020D010EF324D96E000EF42026
:10141000DA6EDECF2EF0DDCF2FF02EC0D9FF2FC039
:10142000DAFFDF50306E2C2A18EF0AF0D8903032F5
:101430002C2E16EF0AF03050010B2AC0D9FF2BC01A
:10144000DAFFDF6E31501200000E3B6E000E3C6E74
:1014500036503710D8A42FEF0AF031EF0AF035EFED
:101460000AF0000E3A6E62EF0AF0000E3B6E3B503F
:101470003624326E000E3720336E64EC0AF03B2ABD
:10148000030E3B6446EF0AF048EF0AF037EF0AF02C
:10149000000E3C6E3C503624386E000E3720396EFC
:1014A000040E3824286E000E3920296E09EC08F04D
:1014B0003A6E3C2A030E3C6460EF0AF062EF0AF0D9
:1014C0004AEF0AF03A50120032503310D8B46BEFA2
:1014D0000AF06DEF0AF07EEF0AF032C0D9FF33C098
:1014E000DAFFDF30E832E832070B346E070E34647F
:1014F0007CEF0AF07EEF0AF082EF0AF0000E356E04
:1015000098EF0AF032C028F033C029F009EC08F057
:10151000356E32C028F033C029F032C0D9FF33C055
:10152000DAFF000EDFBE010E2A6EABEC08F0356E5E
:101530003550120042EC0BF01F0E326E000E336E6F
:101540003E0E346E000E356E41EC09F03D6E310EEC
:101550003E18D8A4AEEF0AF0B0EF0AF0B8EF0AF0E8
:10156000270E326E000E336EF9EC0AF09CEF0AF093
:10157000300E3E18D8A4BFEF0AF0C1EF0AF0C9EF51
:101580000AF0270E326E000E336E0DEC0BF09CEF5E
:101590000AF09CEF0AF000EF00F0420EF66E160E15
:1015A000F76E000EF86E00EE01F010EE27F0090065
:1015B000F5CFEEFFE550E150FAE13E6A000EF86E1D
:1015C00000019AEF0AF036503710D8A4EAEF0AF07B
:1015D000ECEF0AF0F0EF0AF0000E386EF7EF0AF0C9
:1015E00036C032F037C033F064EC0AF0386E385051
:1015F000120032503310D8A400EF0BF002EF0BF0C2
:1016000004EF0BF00CEF0BF032C028F033C029F0E0
:10161000010E2A6EABEC08F0120032503310D8A441
:1016200014EF0BF016EF0BF018EF0BF020EF0BF0B0
:1016300032C028F033C029F0000E2A6EABEC08F05F
:101640001200800F810F820F830F840F890F8A0F82
:101650008B0F8C0F8D0F920F930F940F950F960F8A
:09166000020A121A626A727A038E
:10166A00270E366E000E376EE3EC0AF01F0E366E4A
:10167A00000E376E24EC0AF0120035EC0BF0120063
:020000040020DA
:08000000FFFFFFFFFFFFFFFF00
:020000040030CA
:0E000000FF071F1FFF8385FF0FC00FE00F409B
:00000001FF
