:0400000007EF00F016
:0A00080069822DED0AF066EF16F094
:10100000003738392F3435362A3132332D23303DED
:101010002B4C4D333520546573740054656D70311D
:0F1020003A200054656D70323A200025690000B7
:101030002250800B2B6E22502224316E21AE23EFE2
:1010400008F025EF08F026EF08F031803150D8B4D1
:101050002CEF08F02EEF08F041EF08F03128D8A46B
:1010600034EF08F036EF08F03EEF08F0000E1F6E88
:10107000000E206E000E216E000E226E218E49EFB2
:1010800008F0000E1F6E000E206E000E216E000E86
:10109000226E2650800B2B1A26502624306E25AE49
:1010A00054EF08F056EF08F057EF08F0308030505A
:1010B000D8B45DEF08F05FEF08F072EF08F0302869
:1010C000D8A465EF08F067EF08F06FEF08F0000EA6
:1010D000236E000E246E000E256E000E266E258EE9
:1010E0007AEF08F0000E236E000E246E000E256EBF
:1010F000000E266E3050D8B480EF08F082EF08F072
:101100008AEF08F03150D8A488EF08F08AEF08F091
:1011100094EF08F0000E1F6E000E206E000E216E80
:10112000000E226E2CEF0AF025501F02F3CF36F08E
:10113000F4CF37F036502C6E2D6A2E6A2F6A375056
:10114000326E336A346A356A24502002F3CF36F0A7
:10115000F4CF37F036502C26000E2D222E222F22CF
:1011600037503226000E33223422352223502102FA
:10117000F3CF36F0F4CF37F036502C26000E2D2268
:101180002E222F2237503226000E332234223522CF
:101190002EC02FF02DC02EF02CC02DF02C6A235025
:1011A0002002F3CF36F0F4CF37F036502C263750EC
:1011B0002D22000E2E22000E2F2224501F02F3CFCC
:1011C00036F0F4CF37F036502C2637502D22000E53
:1011D0002E22000E2F222EC02FF02DC02EF02CC05C
:1011E0002DF02C6A23501F02F3CF36F0F4CF37F0E6
:1011F00036502C2637502D22000E2E22000E2F2284
:1012000025502002F3CF36F0F4CF37F03650322697
:1012100037503322000E3422000E35222450210292
:10122000F3CF36F0F4CF37F0365032263750332232
:10123000000E3422000E352225502102F3CF36F065
:10124000F4CF37F03650276E3750286E296A2A6A55
:1012500029C02AF028C029F027C028F0276A275083
:10126000322628503322295034222A5035222CC0CD
:1012700027F02DC028F02EC029F02FC02AF0190E1B
:1012800047EF09F0D8902A32293228322732E82E47
:1012900042EF09F0275032262850332229503422B9
:1012A0002A5035222EC02FF02DC02EF02CC02DF04C
:1012B0002C6A305031C027F0286A2726000E2822D9
:1012C000820E2724366EFF0E2820376E7DEF09F040
:1012D000D89032363336343635362FAE72EF09F0C9
:1012E00074EF09F075EF09F03280D8902C362D3666
:1012F0002E362F363606D8A0370634AE82EF09F0E8
:1013000084EF09F068EF09F0000E306E2FAE8BEF1E
:1013100009F08DEF09F0B1EF09F0FF0E2C14276EE4
:10132000FF0E2D14286EFF0E2E14296E7F0E2F1423
:101330002A6E2750281029102A10D8B4A2EF09F0DD
:10134000A4EF09F0A8EF09F0010E306EB1EF09F03B
:1013500032A0ADEF09F0AFEF09F0B1EF09F0A4EF63
:1013600009F03050D8B4B7EF09F0B9EF09F0DDEF6C
:1013700009F0010E3226000E33223422352235A028
:10138000C4EF09F0C6EF09F0DDEF09F032C027F035
:1013900033C028F034C029F035C02AF02A342A326C
:1013A00029322832273227C032F028C033F029C032
:1013B00034F02AC035F0364A372A37BEE8EF09F054
:1013C000375008E13628D8A0E8EF09F0EAEF09F035
:1013D000F4EF09F0000E326E000E336E800E346EA4
:1013E0007F0E356E22EF0AF037BE01EF0AF037505C
:1013F00006E13604D8B0FFEF09F001EF0AF00DEF77
:101400000AF0000E326E000E336E000E346E000EC7
:10141000356E000E2B6E22EF0AF036C031F0FF0E53
:101420003216FF0E33167F0E3416000E351631A01D
:101430001CEF0AF01EEF0AF01FEF0AF0348ED8906E
:101440003130356E2B50351232C01FF033C020F0D2
:1014500034C021F035C022F012000600FACF09F0A6
:10146000FBCF0AF0E1CF0BF0E2CF0CF0D9CF0DF0BB
:10147000DACF0EF0F3CF0FF0F4CF10F0F2A843EF75
:101480000AF045EF0AF04EEF0AF0F2A24AEF0AF036
:101490004CEF0AF04EEF0AF0D9EC19F0F0A653EF3A
:1014A0000AF055EF0AF05EEF0AF0F0A05AEF0AF0EA
:1014B0005CEF0AF05EEF0AF0D7EC19F0F0A863EFEA
:1014C0000AF065EF0AF06EEF0AF0F0A26AEF0AF098
:1014D0006CEF0AF06EEF0AF0D5EC19F0F2A673EF9C
:1014E0000AF075EF0AF092EF0AF0F2A07AEF0AF034
:1014F0007CEF0AF092EF0AF081B881EF0AF083EFF7
:101500000AF092EF0AF06804D8A489EF0AF08BEF92
:101510000AF092EF0AF0000E686E000E8FEC19F0E0
:10152000B4EF0AF0F2A697EF0AF099EF0AF0B4EFE1
:101530000AF0F2A09EEF0AF0A0EF0AF0B4EF0AF072
:1015400081A8A5EF0AF0A7EF0AF0B4EF0AF06850FF
:10155000D8A4ADEF0AF0AFEF0AF0B4EF0AF0010E35
:10156000686E010E8FEC19F0F2A6B9EF0AF0BBEF2E
:101570000AF0D8EF0AF0F2A0C0EF0AF0C2EF0AF0CA
:10158000D8EF0AF081BAC7EF0AF0C9EF0AF0D8EF36
:101590000AF06704D8A4CFEF0AF0D1EF0AF0D8EF31
:1015A0000AF0000E676E000E7BEC19F0FAEF0AF0FD
:1015B000F2A6DDEF0AF0DFEF0AF0FAEF0AF0F2A090
:1015C000E4EF0AF0E6EF0AF0FAEF0AF081AAEBEF97
:1015D0000AF0EDEF0AF0FAEF0AF06750D8A4F3EF43
:1015E0000AF0F5EF0AF0FAEF0AF0010E676E010E4D
:1015F0007BEC19F0F2A6FFEF0AF001EF0BF01EEF03
:101600000BF0F2A006EF0BF008EF0BF01EEF0BF063
:1016100081BC0DEF0BF00FEF0BF01EEF0BF066042B
:10162000D8A415EF0BF017EF0BF01EEF0BF0000E28
:10163000666E000E67EC19F040EF0BF0F2A623EF98
:101640000BF025EF0BF040EF0BF0F2A02AEF0BF0C0
:101650002CEF0BF040EF0BF081AC31EF0BF033EFE0
:101660000BF040EF0BF06650D8A439EF0BF03BEFD6
:101670000BF040EF0BF0010E666E010E67EC19F0F7
:10168000F2A645EF0BF047EF0BF064EF0BF0F2A082
:101690004CEF0BF04EEF0BF064EF0BF081BE53EF0D
:1016A0000BF055EF0BF064EF0BF06504D8A45BEF83
:1016B0000BF05DEF0BF064EF0BF0000E656E000EAB
:1016C00053EC19F086EF0BF0F2A669EF0BF06BEF1D
:1016D0000BF086EF0BF0F2A070EF0BF072EF0BF057
:1016E00086EF0BF081AE77EF0BF079EF0BF086EF22
:1016F0000BF06550D8A47FEF0BF081EF0BF086EF75
:101700000BF0010E656E010E53EC19F09DAC8BEFE2
:101710000BF08DEF0BF096EF0BF09EAC92EF0BF011
:1017200094EF0BF096EF0BF03CEC19F010C0F4FFC7
:101730000FC0F3FF0EC0DAFF0DC0D9FF0CC0E2FFEF
:101740000BC0E1FF0AC0FBFF09C0FAFF699211005C
:10175000C8EC19F0E20E2A6E000E2B6E010E2C6EF4
:10176000070E2D6E110E2E6E100E2F6E66EC17F0FA
:101770000001FA6FE20E2A6E000E2B6E020E2C6E26
:10178000010E2D6E1B0E2E6E100E2F6E66EC17F0D6
:101790000001FA6FE20E2A6E000E2B6E030E2C6E05
:1017A000010E2D6E230E2E6E100E2F6E66EC17F0AE
:1017B0000001FA6F6050D8A4E0EF0BF0E2EF0BF0FD
:1017C000EEEF0BF0DB0E196E000E1A6E000E1B6EA4
:1017D00029EC18F00001FA6F00EF0CF06004D8A4B7
:1017E000F4EF0BF0F6EF0BF000EF0CF0DB0E196EE0
:1017F000000E1A6E010E1B6E29EC18F00001FA6F34
:10180000890E236E410E246E9C0E256E400E266EB0
:1018100063C011F064C012F0136A146A000EE4ECA5
:101820000CF011C01FF012C020F013C021F014C042
:1018300022F018EC08F01FC038F020C039F021C0A9
:101840003AF022C03BF0A8EC11F038C05BF039C090
:101850005CF05BC011F05CC012F0000E146E0A0E5A
:10186000136E2CEC16F011C05BF012C05CF0890E08
:10187000236E410E246E9C0E256E400E266E61C0B6
:1018800011F062C012F0136A146A000EE4EC0CF05E
:1018900011C01FF012C020F013C021F014C022F0BC
:1018A00018EC08F01FC038F020C039F021C03AF021
:1018B00022C03BF0A8EC11F038C059F039C05AF002
:1018C00059C011F05AC012F0000E146E0A0E136EB9
:1018D0002CEC16F011C059F012C05AF05BC055F054
:1018E0005CC056F0B60E576E000E586E20EC14F029
:1018F0000001FA6F59C055F05AC056F0AF0E576E3E
:10190000000E586E20EC14F00001FA6FE20E2A6E01
:10191000000E2B6E020E2C6E070E2D6EB60E2E6E66
:10192000000E2F6E66EC17F00001FA6FE20E2A6EC1
:10193000000E2B6E030E2C6E070E2D6EAF0E2E6E4C
:10194000000E2F6E66EC17F00001FA6F5C5009E193
:10195000150E5B5CD8A0AFEF0CF0B1EF0CF0BBEF55
:101960000CF0EA0E1B6E000E1C6EE3EC17F000018B
:10197000FA6FC3EF0CF0EA0E1F6E000E206EAFEC94
:1019800018F00001FA6F5A5009E11A0E595CD8A0FC
:10199000CCEF0CF0CEEF0CF0D8EF0CF0E80E1B6E95
:1019A000000E1C6E06EC18F00001FA6FDAEF0BF077
:1019B000E80E1F6E000E206EAFEC18F00001FA6FFB
:1019C000DAEF0BF007EF00F0196E1950D8B4EBEF17
:1019D0000CF0EDEF0CF00FEF0DF014BEF4EF0CF087
:1019E000F2EF0CF00FEF0DF011C015F012C016F071
:1019F00013C017F014C018F0151E161E171E181E5F
:101A0000152A000E16221722182215C01BF016C028
:101A10001CF017C01DF018C01EF017EF0DF011C01C
:101A20001BF012C01CF013C01DF014C01EF01150AA
:101A3000121013101410D8A420EF0DF022EF0DF0A7
:101A40002CEF0DF0000E116E000E126E000E136ED4
:101A5000000E146EBDEF0DF0960E1A6E36EF0DF0FF
:101A60001A2AD8901E321D321C321B32000E1B1453
:101A7000156E000E1C14166E000E1D14176EFE0E51
:101A80001E14186E1550161017101810D8A44BEF0E
:101A90000DF04DEF0DF030EF0DF05BEF0DF01A2A69
:101AA000010E1B26000E1C221D221E22D8901E3263
:101AB0001D321C321B32000E1B14156E000E1C143E
:101AC000166E000E1D14176EFF0E1E14186E1550A4
:101AD000161017101810D8A470EF0DF072EF0DF05B
:101AE0004FEF0DF07AEF0DF01A06D8901B361C362A
:101AF0001D361E361DBE7FEF0DF081EF0DF089EF14
:101B00000DF0020E1A6087EF0DF089EF0DF074EF03
:101B10000DF01AB08EEF0DF090EF0DF091EF0DF08B
:101B20001D9ED8901A321AC015F0166A176A186AE4
:101B300015C018F0176A166A156A15501B12165050
:101B40001C1217501D1218501E121950D8B4ABEFAA
:101B50000DF0ADEF0DF0B5EF0DF014BEB4EF0DF0DC
:101B6000B2EF0DF0B5EF0DF01E8E1BC011F01CC0D2
:101B700012F01DC013F01EC014F012002FBEC3EFF0
:101B80000DF0C6EF0DF0010EC7EF0DF0000E366E32
:101B90003650D8B4CEEF0DF0D0EF0DF0D4EF0DF0FD
:101BA0002E6C2F1ED8B02F2A000198BFDCEF0DF04D
:101BB000DAEF0DF0E2EF0DF0000E336E010E326E33
:101BC000E6EF0DF097C032F098C033F095C034F0D6
:101BD00096C035F03650D8B4F0EF0DF0F2EF0DF0BE
:101BE00009EF0EF03406D8A035063650D8A4FBEF26
:101BF0000DF0FDEF0DF003EF0EF0000E316E2B0E29
:101C0000306E07EF0EF0000E316E2D0E306E30C0CC
:101C100036F0000E386E1F0E376E000E01011F6F7A
:101C200042EF0EF03706D8A03806000E3724D96EE2
:101C3000010E3820DA6E2EC011F02FC012F0000E07
:101C4000146E0A0E136E7DEC14F011C017F012C062
:101C500018F08FEC18F01750300FDF6E3206D8A056
:101C600033063406D8A035062EC011F02FC012F06E
:101C7000000E146E0A0E136EFCEC12F011C02EF062
:101C800012C02FF038BE4DEF0EF0385008E1370487
:101C9000D8A04DEF0EF04FEF0EF065EF0EF02E5086
:101CA0002F10D8A456EF0EF058EF0EF012EF0EF0F2
:101CB00033BE65EF0EF0335006E13204D8B063EF67
:101CC0000EF065EF0EF012EF0EF03650D8B46BEF59
:101CD0000EF06DEF0EF078EF0EF03706D8A0380654
:101CE000000E3724D96E010E3820DA6E36C0DFFFC1
:101CF0002CC021F02DC022F0000E3724236E010EDF
:101D00003820246E34C025F035C026F079EC15F06B
:101D1000120011C01BF012C01CF015501610D8A4F0
:101D200094EF0EF096EF0EF098EF0EF043EF0FF0F9
:101D30001BC0D9FF1CC0DAFF13C0DFFF15501B24E6
:101D4000176E16501C20186EFF0E1724D96EFF0E4A
:101D50001820DA6E13C0DFFF165007E1030E155C82
:101D6000D8B0B5EF0EF0B7EF0EF0B9EF0EF043EFCD
:101D70000FF020EE01F01B50D9261C50DA2213C0C0
:101D8000DFFF20EE02F01B50D9261C50DA2213C0D0
:101D9000DFFF15501B24176E16501C20186EFE0E08
:101DA0001724D96EFF0E1820DA6E13C0DFFF15500E
:101DB0001B24176E16501C20186EFD0E1724D96EAA
:101DC000FF0E1820DA6E13C0DFFF165007E1070E72
:101DD000155CD8B0EEEF0EF0F0EF0EF0F2EF0EF073
:101DE00043EF0FF020EE03F01B50D9261C50DA22EF
:101DF00013C0DFFF15501B24176E16501C20186EE1
:101E0000FC0E1724D96EFF0E1820DA6E13C0DFFF08
:101E1000165007E1090E155CD8B011EF0FF013EF63
:101E20000FF015EF0FF043EF0FF01BC017F01CC0C1
:101E300018F0171E181E174A182A030E1714196EC9
:101E40001A6A19501B261A501C221950155E1A5076
:101E5000165AFC0E1516FF0E16163AEF0FF01BC0A1
:101E6000D9FF1CC0DAFF13C0DFFF1506D8A0160685
:101E70001B4A1C2A15501610D8A441EF0FF043EF4F
:101E80000FF02FEF0FF01200010E196E115012100B
:101E9000D8B44DEF0FF04FEF0FF060EF0FF011C01F
:101EA000D9FF12C0DAFFDF30E832E832070B136ED9
:101EB000070E13645EEF0FF060EF0FF0C3EF0FF04B
:101EC000000E196EE4EF0FF011C0D9FF12C0DAFF57
:101ED000DF30E832E832070B136E010E146E132A5E
:101EE00074EF0FF0D8901436132E72EF0FF01450D9
:101EF000FF0A156E11C0D9FF12C0DAFFDF50070BC1
:101F0000166E1650020DD10EF324D96E000EF42079
:101F1000DA6EDECF17F0DDCF18F017C0D9FF18C08A
:101F2000DAFF1550DF16E4EF0FF011C0D9FF12C031
:101F3000DAFFDF30E832E832070B136E010E146E61
:101F4000132AA5EF0FF0D8901436132EA3EF0FF03D
:101F500011C0D9FF12C0DAFFDF50070B156E155004
:101F6000020DD10EF324D96E000EF420DA6EDECF0E
:101F700016F0DDCF17F016C0D9FF17C0DAFF1450E6
:101F8000DF12E4EF0FF011C0D9FF12C0DAFFDFBC9F
:101F9000CCEF0FF0CFEF0FF0010ED0EF0FF0000EEF
:101FA000136E146A1450000AD8B4D9EF0FF060EF22
:101FB0000FF01350000AD8B464EF0FF0010AD8B440
:101FC00095EF0FF060EF0FF0195012003BC0D9FFF2
:101FD0003CC0DAFFDECFF6FFDDCFF7FFF86A08007E
:101FE000F550250AD8A4F7EF0FF0F9EF0FF066EFE0
:101FF00010F03BC0D9FF3CC0DAFFDE2A000EDD2224
:10200000000E0001966F000E956F95C05FF0976906
:1020100098693BC0D9FF3CC0DAFFDECF45F0DDCF89
:1020200046F045C0F6FF46C0F7FFF86A0800F550D5
:10203000640AD8B41EEF10F020EF10F02FEF10F06C
:1020400045C0F6FF46C0F7FFF86A0800F550690A78
:10205000D8A42DEF10F02FEF10F05DEF10F03DC081
:10206000D9FF3EC0DAFFDFCF3FF0020EDE26DFCF22
:1020700040F0000EDD223FC0D9FF40C0DAFFDECFC6
:1020800041F0DDCF42F0010E45243F6E000E4620A8
:10209000406E3BC0D9FF3CC0DAFF3FC0DEFF40C00E
:1020A000DDFF39C02CF03AC02DF041C02EF042C007
:1020B0002FF0BEEC0DF07BEF10F03BC0D9FF3CC021
:1020C000DAFFDE2A000EDD227BEF10F03BC0D9FFE5
:1020D0003CC0DAFFDECFF6FFDDCFF7FFF86A08007D
:1020E000F550116E126A39C013F03AC014F097EC33
:1020F00012F05DEF10F01200000E276E2350241036
:10210000D8A485EF10F087EF10F08BEF10F0000EE1
:10211000286E10EF11F023C01BF024C01CF09DECC2
:1021200016F0286E010E23241B6E000E24201C6E58
:102130009DEC16F0286E000E276E27502324256E86
:10214000000E2420266E020E25241B6E000E262073
:102150001C6E9DEC16F0272A030E2764B2EF10F0D8
:10216000B4EF10F09DEF10F01A0E256EF80EE82E69
:10217000FED7252EFCD700D023C01FF024C020F0AE
:10218000380E216EF1EC15F0070E256E7D0EE82E4F
:10219000FED7252EFCD700F023C01FF024C020F06E
:1021A000380E216EF1EC15F0320EE82EFED723C06A
:1021B0001FF024C020F0380E216EF1EC15F023C082
:1021C0001FF024C020F0010E216EF1EC15F023C0A9
:1021D0001FF024C020F0020E216EF1EC15F023C098
:1021E0001FF024C020F0060E216EF1EC15F023C084
:1021F0001FF024C020F00C0E216EF1EC15F023C06E
:102200001FF024C020F0280E216EF1EC15F023C041
:102210001FF024C020F0800E216EF1EC15F0286E26
:1022200028501200010E1A6E11501210D8B41BEF74
:1022300011F01DEF11F02EEF11F011C0D9FF12C0F7
:10224000DAFFDF30E832E832070B146E070E146451
:102250002CEF11F02EEF11F091EF11F0000E1A6E2D
:10226000A6EF11F011C0D9FF12C0DAFFDF30E8325B
:10227000E832070B146E010E156E142A42EF11F0AE
:10228000D8901536142E40EF11F01550FF0A166E37
:1022900011C0D9FF12C0DAFFDF50070B176E1750BD
:1022A000020DC70EF324D96E000EF420DA6EDECFD5
:1022B00018F0DDCF19F018C0D9FF19C0DAFF165099
:1022C000DF16A6EF11F011C0D9FF12C0DAFFDF3020
:1022D000E832E832070B146E010E156E142A73EF04
:1022E00011F0D8901536142E71EF11F011C0D9FFEE
:1022F00012C0DAFFDF50070B166E1650020DC70E24
:10230000F324D96E000EF420DA6EDECF17F0DDCFA5
:1023100018F017C0D9FF18C0DAFF1550DF12A6EF6A
:1023200011F01350146E156A1550000AD8B49BEFC3
:1023300011F02EEF11F01450000AD8B432EF11F062
:10234000010AD8B463EF11F02EEF11F01A50120009
:102350003A343B34416E4150D8A4B1EF11F0B3EFA1
:1023600011F0BDEF11F0000E386E000E396E000E48
:102370003A6E000E3B6E2AEF12F038C03CF039C0C6
:102380003DF03AC03EF03BC03FF0200ECDEF11F0E3
:10239000D8903F323E323D323C32E82EC8EF11F049
:1023A0003C50406E3A8EFF0E3816FF0E3916FF0E67
:1023B0003A16000E3B16960E415E41BEE4EF11F058
:1023C000E2EF11F0FAEF11F04150800A970FD8B008
:1023D000ECEF11F0EEEF11F0F0EF11F0B3EF11F0C0
:1023E000D8903B323A3239323832413EF0EF11F078
:1023F00012EF12F01F0E416400EF12F002EF12F024
:102400000AEF12F0B3EF11F0D890383639363A3679
:102410003B3641064150D8A410EF12F012EF12F0F3
:1024200004EF12F04050D8B418EF12F01AEF12F087
:1024300022EF12F03B1E3A1E391E386C000E392274
:102440003A223B2238C038F039C039F03AC03AF06D
:102450003BC03BF01200136E55EF12F0928096EFE6
:1024600012F0928296EF12F0928496EF12F092861A
:1024700096EF12F0928A96EF12F0968096EF12F095
:10248000968296EF12F0968496EF12F0938496EF70
:1024900012F0938696EF12F0938296EF12F09388E3
:1024A00096EF12F0938096EF12F01350116E126AAD
:1024B0001250000AD8B45FEF12F096EF12F01150EC
:1024C000000AD8B42EEF12F0010AD8B431EF12F09E
:1024D000030AD8B434EF12F0010AD8B437EF12F07F
:1024E000070AD8B43AEF12F0010AD8B43DEF12F05F
:1024F000030AD8B440EF12F0010AD8B443EF12F047
:102500000F0AD8B446EF12F0010AD8B449EF12F01E
:10251000030AD8B44CEF12F0010AD8B44FEF12F00E
:10252000070AD8B452EF12F096EF12F012001350CF
:102530001410D8B49EEF12F0A0EF12F0A9EF12F031
:1025400013501410D8A4A7EF12F0A9EF12F0AEEFB9
:1025500012F01150DBEC19F0FBEF12F020EE0AF054
:102560001350D9261450DA22DE50DE10D8B4BBEF57
:1025700012F0BDEF12F0D8EF12F020EE0AF0135077
:10258000D9261450DA2210EE03F01350E12614502D
:10259000E222DE50E65CE650800A196EDE50800AC8
:1025A0001958D8B0D6EF12F0D8EF12F0FBEF12F0B6
:1025B00020EE03F01350D9261450DA22DECF15F0A6
:1025C000DDCF16F013C0D9FF14C0DAFFDECF17F04D
:1025D000DDCF18F015501724D96E16501820DA6E7A
:1025E00011C0DFFF20EE03F01350D9261450DA2279
:1025F000DE2A000EDD221200000E166E14BE05EF5C
:1026000013F003EF13F00BEF13F0136C141ED8B09C
:10261000142A010E166E12BE12EF13F010EF13F013
:1026200018EF13F0116C121ED8B0122A010E161AF0
:10263000000E186E000E176E13501410D8B423EF4E
:1026400013F025EF13F04DEF13F0010E156E2DEF83
:1026500013F0D89013361436152A14AE32EF13F057
:1026600034EF13F029EF13F0D890173618361350C3
:10267000115C14501258D8A040EF13F042EF13F041
:1026800047EF13F01350115E1450125A1780D89070
:1026900014321332152E34EF13F01650D8B453EF12
:1026A00013F055EF13F059EF13F0176C181ED8B054
:1026B000182A17C011F018C012F01200010E086E8F
:1026C00001500210D8B467EF13F069EF13F072EF06
:1026D00013F003500410D8A470EF13F072EF13F04E
:1026E00076EF13F0000E086EBEEF13F020EE06F04A
:1026F0000150D9260250DA22DFA281EF13F083EFD6
:1027000013F097EF13F0C350C4CF05F0066A05C06D
:1027100006F0056A0526000E062203C0D9FF04C094
:10272000DAFF05C0DEFF06C0DDFFBEEF13F020EECE
:1027300006F00150D9260250DA22DFB2A2EF13F0E0
:10274000A4EF13F083EF13F0C350C4CF05F0066A73
:1027500005C006F0056A0526000E0622060E076E65
:10276000063406320532072EB0EF13F003C0D9FF4E
:1027700004C0DAFF05C0DEFF06C0DDFF085012000E
:10278000010E176E14501510D8A4C9EF13F0CBEF3B
:1027900013F0CFEF13F0000E176E1EEF14F0C2907F
:1027A00020EE03F01450D9261550DA22DF50166EB1
:1027B000164616461646C0501618C70B1618C06E99
:1027C00020EE04F01450D9261550DA22DF50166E90
:1027D000C0501618F80B1618C06E20EE05F01450F5
:1027E000D9261550DA22DF50166E16461646C2500C
:1027F0001618C30B1618C26E20EE05F01450D92619
:102800001550DA22DF502BEC12F014C0D9FF15C09E
:10281000DAFFDECF5DF0DDCF5EF09D8C9E9CF28E08
:10282000F28C14C011F015C012F06DEC18F014C049
:1028300011F015C012F06DEC18F0C28017501200A4
:10284000010E0101266F21EE20F0050EDE6AE8067A
:10285000FDE2000E276F57505810D8A432EF14F045
:1028600034EF14F038EF14F0000E266F7BEF14F005
:1028700057C011F058C012F0000E146E200E136EE7
:10288000000E166E050E156E89EC0EF020EE05F0AA
:102890005750D9265850DA22DF6A200E4F6E010EAB
:1028A000506E2B0E516E100E526E55C053F056C026
:1028B00054F093EC17F06CEF14F0200E2725D96E2E
:1028C000DA6A010EDA2227515724E16E000E5820F1
:1028D000E26EDFCFE7FF272B200E01012725D96EFF
:1028E000DA6A010EDA22DF50D8A479EF14F07BEF18
:1028F00014F05DEF14F026511200000E166E12BE99
:1029000086EF14F084EF14F08CEF14F0116C121EAB
:10291000D8B0122A010E166E14BE93EF14F091EF88
:1029200014F097EF14F0136C141ED8B0142A13503F
:102930001410D8B49EEF14F0A0EF14F0C4EF14F00C
:10294000010E156EA8EF14F0D89013361436152A20
:1029500014AEADEF14F0AFEF14F0A4EF14F0135079
:10296000115C14501258D8A0B8EF14F0BAEF14F05C
:10297000BEEF14F01350115E1450125AD890143256
:102980001332152EAFEF14F01650D8B4CAEF14F06E
:10299000CCEF14F0D0EF14F0116C121ED8B0122A44
:1029A00011C011F012C012F0120026060CEF15F043
:1029B00023C01FF024C020F02650800F216EF1ECC0
:1029C00015F0296E29EF15F023C01FF024C020F068
:1029D0002650C00F216EF1EC15F0296E29EF15F08D
:1029E00023C01FF024C020F02650940F216EF1EC7C
:1029F00015F0296E29EF15F023C01FF024C020F038
:102A00002650D40F216EF1EC15F0296E29EF15F048
:102A1000000E296E29EF15F02550276E286A2850E0
:102A2000000AD8B416EF15F008EF15F02750010A88
:102A3000D8B4D8EF14F0030AD8B4E4EF14F0010AC4
:102A4000D8B4F0EF14F0070AD8B4FCEF14F008EF94
:102A500015F029501200010E276E23502410D8B40F
:102A600034EF15F036EF15F03FEF15F02550261036
:102A7000D8A43DEF15F03FEF15F05EEF15F0000E16
:102A8000276E77EF15F023C01FF024C020F025C07B
:102A9000F6FF26C0F7FF000EF86E0F0EF76403D0A6
:102AA0000800F55005D0F6CFE9FFF7CFEAFFEF5069
:102AB000216EB6EC15F0276E254A262A25C0F6FFB2
:102AC00026C0F7FF000EF86E0F0EF76403D0080063
:102AD000F55005D0F6CFE9FFF7CFEAFFEF50000938
:102AE000D8A475EF15F077EF15F043EF15F02750E8
:102AF000120026BE7EEF15F080EF15F086EF15F080
:102B000025C02AF026C02BF08AEF15F0000E2B6EA0
:102B1000000E2A6E000E296E000E286E9CEF15F036
:102B2000000E126E200E116E21C013F022C014F0A0
:102B300097EC12F0284A292A2A50285C2950800A4A
:102B4000276E2B50800A2758D8A0A9EF15F0ABEFBD
:102B500015F090EF15F023C01AF024C01BF021C02F
:102B60001CF022C01DF04BEC18F012001F5020107A
:102B7000D8A4BDEF15F0BFEF15F0C3EF15F0000EB0
:102B8000226EEFEF15F01FC011F020C012F0010E01
:102B9000136E12EC11F0226E1FC01BF020C01CF04F
:102BA00021380F0B0F0B1D6ED3EC16F0226E1FC0D9
:102BB0001BF020C01CF00AEC19F0226E1FC01BF0A5
:102BC00020C01CF021500F0B1D6ED3EC16F0226EAE
:102BD0001FC01BF020C01CF00AEC19F0226E22501E
:102BE00012001F502010D8A4F8EF15F0FAEF15F0DE
:102BF000FEEF15F0000E226E2AEF16F01FC011F046
:102C000020C012F0000E136E12EC11F0226E1FC0E5
:102C10001BF020C01CF021380F0B0F0B1D6ED3ECE6
:102C200016F0226E1FC01BF020C01CF00AEC19F039
:102C3000226E1FC01BF020C01CF021500F0B1D6E18
:102C4000D3EC16F0226E1FC01BF020C01CF00AEC63
:102C500019F0226E22501200000E166E000E156E34
:102C600013501410D8B437EF16F039EF16F061EFA7
:102C700016F0010E176E41EF16F0D8901336143689
:102C8000172A14AE46EF16F048EF16F03DEF16F097
:102C9000D890153616361350115C14501258D8A01F
:102CA00054EF16F056EF16F05BEF16F01350115E6E
:102CB0001450125A1580D89014321332172E48EF40
:102CC00016F015C011F016C012F01200480EF66E84
:102CD000320EF76E000EF86E00EEBDF010EE2FF023
:102CE0000900F5CFEEFFE550E150FAE1A60EF66ED1
:102CF000330EF76E000EF86E00EE65F010EE04F085
:102D00000900F5CFEEFFE550E150FAE101EE00F0E9
:102D1000200EEE6AE806FDE100EE80F03D0EEE6A60
:102D2000E806FDE100EE59F00C0EEE6AE806FDE162
:102D3000699069920001A8EF0BF01B501C10D8B4E9
:102D4000A4EF16F0A6EF16F0B7EF16F01BC0D9FFF0
:102D50001CC0DAFFDF30E832E832070B1D6E070EC9
:102D60001D64B5EF16F0B7EF16F0BBEF16F0000ECE
:102D70001E6ED1EF16F01BC011F01CC012F044EC17
:102D80000FF01E6E1BC011F01CC012F01BC0D9FF4B
:102D90001CC0DAFF000EDFBE010E136E12EC11F044
:102DA0001E6E1E501200020E1B24116E000E1C20FF
:102DB000126E1D50010B136E12EC11F0030E1B244A
:102DC000116E000E1C20126ED8901D30010B136E78
:102DD00012EC11F0040E1B24116E000E1C20126E5A
:102DE0001D40E8423F0B010B136E12EC11F0050E73
:102DF0001B24116E000E1C20126E1D38E8461F0B9E
:102E0000010B136E12EC11F01E6E1E501200066EB6
:102E1000010E056E01500210D8B411EF17F013EF38
:102E200017F01BEF17F0040E066419EF17F01BEFF5
:102E300017F01FEF17F0000E056E35EF17F0065074
:102E4000020DBD0EF324D96E000EF420DA6EDECF33
:102E500003F0DDCF04F003C0D9FF04C0DAFF01C0E6
:102E6000E1FF02C0E2FFDFCFE7FF05501200605034
:102E7000D8A43DEF17F03FEF17F04FEF17F0DB0E40
:102E8000016E000E026E630E036E000E046E5EECA9
:102E900013F00001FA6F010E606E65EF17F0600429
:102EA000D8A455EF17F057EF17F065EF17F0DB0ECA
:102EB000016E000E026E610E036E000E046E5EEC7B
:102EC00013F00001FA6F000E606E12002A502B10F2
:102ED000D8B46DEF17F06FEF17F078EF17F02E50B2
:102EE0002F10D8A476EF17F078EF17F07CEF17F0DB
:102EF000000E306E91EF17F02AC023F02BC024F0A3
:102F00002CC025F02DC026F0D5EC14F02AC023F0FB
:102F10002BC024F02EC025F02FC026F02BEC15F08E
:102F2000306E30501200530E0001EC6F000EED6F4A
:102F30004FC0EEF050C0EFF0000EF26F000EF16FD8
:102F4000000EF96F000EF86FEE0E476E000E486E21
:102F500051C049F052C04AF0EC0E4B6E000E4C6E60
:102F6000BBEC17F00001F1514F24D96EF251502003
:102F7000DA6EDF6A120049C04DF04AC04EF0CFEF62
:102F800017F047C039F048C03AF04D0E3B6E000EC6
:102F90003C6E4BC03DF04CC03EF0E6EC0FF04DC037
:102FA000F6FF4EC0F7FFF86A0800F5500009D8A4F4
:102FB000DCEF17F0DEEF17F0C1EF17F0000E486EF0
:102FC000000E476E12001B501C10D8A4EAEF17F039
:102FD000ECEF17F0F0EF17F0000E1D6E04EF18F095
:102FE0001BC011F01CC012F0010E136E12EC11F098
:102FF0001D6E010E1B24116E000E1C20126E000EA1
:10300000136E12EC11F01D6E1D5012001B501C109F
:10301000D8A40DEF18F00FEF18F013EF18F0000E12
:103020001D6E27EF18F01BC011F01CC012F0000E2F
:10303000136E12EC11F01D6E010E1B24116E000EAA
:103040001C20126E010E136E12EC11F01D6E1D503D
:103050001200010E1C6E19501A10D8A432EF18F08D
:1030600034EF18F038EF18F0000E1C6E49EF18F02E
:103070009E9C19C014F01AC015F01BC016F0EDECA0
:1030800018F01C1619C011F01AC012F0B6EC19F0A5
:103090001C161C501200000E206E000E1F6E5CEFFE
:1030A00018F01EC011F0126A1CC013F01DC014F0FD
:1030B00097EC12F01F4A202A1F501A24D96E205074
:1030C0001B20DA6EDF501E6E1E50D8A46AEF18F077
:1030D0006CEF18F051EF18F0120020EE06F01150CE
:1030E000D9261250DA22DFA278EF18F07AEF18F022
:1030F0007DEF18F0C08E8EEF18F020EE06F0115024
:10310000D9261250DA22DFB288EF18F08AEF18F0D1
:103110008DEF18F0C09E8EEF18F0C08E120018BE12
:103120009CEF18F0185006E11704D8B09AEF18F089
:103130009CEF18F0AAEF18F017C019F018C01AF099
:10314000191E1A1E194A1A2A19C017F01AC018F0A7
:10315000AEEF18F017C017F018C018F012001F508B
:103160002010D8A4B6EF18F0B8EF18F0BCEF18F0A4
:10317000000E216ECCEF18F01FC01BF020C01CF019
:103180009DEC16F0216E010E1F241B6E000E2020F8
:103190001C6E9DEC16F0216E215012001F50201065
:1031A000D8A4D5EF18F0D7EF18F0DBEF18F0000E29
:1031B000216EEBEF18F01FC01BF020C01CF09DEC3F
:1031C00016F0216E010E1F241B6E000E20201C6EB7
:1031D0009DEC16F0216E21501200010E186E145055
:1031E0001510D8A4F6EF18F0F8EF18F0FCEF18F06F
:1031F000000E186E08EF19F016C017F017461746A4
:10320000C2501718C30B1718C26E16502BEC12F0D1
:1032100018501200010E1B24116E000E1C20126E9D
:10322000010E136E12EC11F000D000D000F0010E70
:103230001B24116E000E1C20126E000E136E12EC79
:1032400011F01D6E1D501200800F810F820F830F31
:10325000840F890F8A0F8B0F8C0F8D0F920F930F96
:10326000940F950F960F6E2E0105050002020A12AB
:073270001A222A131B030BB5
:103278009E9C5D505E10D8B444EF19F046EF19F0EB
:1032880052EF19F002D852EF19F00500FA6E5D50AE
:10329800FD6E5E50FE6EFF6AFA5012001200086E54
:1032A800070E016E000E026E010E07EC17F0F29089
:1032B8000850D8A462EF19F064EF19F066EF19F01E
:1032C80066EF19F01200086E070E016E000E026E0E
:1032D800010E07EC17F0F2900850D8A476EF19F019
:1032E80078EF19F07AEF19F07AEF19F01200086EFA
:1032F800070E016E000E026E010E07EC17F0F29039
:103308000850D8A48AEF19F08CEF19F08EEF19F055
:103318008EEF19F01200086E070E016E000E026E95
:10332800010E07EC17F0F2900850D8A49EEF19F0A0
:10333800A0EF19F0A2EF19F0A2EF19F01200E20EB7
:10334800236E000E246E7CEC10F0EA0E1F6E000E49
:10335800206ECEEC18F0E80E1F6E000E206ECEEC3C
:1033680018F01200010E136E11501210D8A4BFEFFE
:1033780019F0C1EF19F0C5EF19F0000E136EC6EF82
:1033880019F0C28213501200A3EC19F0DB0E146E70
:10339800000E156EC0EC13F00001FA6F1200010167
:1033A8000101F0921200F0901200F2921200120045
:020000040020DA
:08000000FFFFFFFFFFFFFFFF00
:020000040030CA
:0E000000FF071F1FFF8385FF0FC00FE00F409B
:00000001FF
