:0400000023EF00F0FA
:060008007A82E6ED09F02A
:100018007A80E0CF68F0F0A614EF00F016EF00F059
:100028001FEF00F0F0A01BEF00F01DEF00F01FEF36
:1000380000F092EC0BF068C0E0FF7A90100009EF36
:020048000BF0BB
:10100000003738392F3435362A3132332D23303DED
:051010002B2569000022
:10101600010E716E69506A10D8B414EF08F016EF1D
:1010260008F027EF08F069C0D9FF6AC0DAFFDF30A1
:10103600E832E832070B6B6E070E6B6425EF08F09B
:1010460027EF08F08AEF08F0000E716EABEF08F09C
:1010560069C0D9FF6AC0DAFFDF30E832E832070B31
:101066006B6E010E6C6E6B2A3BEF08F0D8906C36F7
:101076006B2E39EF08F06C50FF0A6D6E69C0D9FF10
:101086006AC0DAFFDF50070B6E6E6E50020D4C0E13
:10109600F324D96E000EF420DA6EDECF6FF0DDCFCA
:1010A60070F06FC0D9FF70C0DAFF6D50DF16ABEF7E
:1010B60008F069C0D9FF6AC0DAFFDF30E832E832EB
:1010C600070B6B6E010E6C6E6B2A6CEF08F0D890F6
:1010D6006C366B2E6AEF08F069C0D9FF6AC0DAFF7A
:1010E600DF50070B6D6E6D50020D4C0EF324D96E5A
:1010F600000EF420DA6EDECF6EF0DDCF6FF06EC03C
:10110600D9FF6FC0DAFF6C50DF12ABEF08F069C091
:10111600D9FF6AC0DAFFDFBC93EF08F096EF08F05C
:10112600010E97EF08F0000E6B6E6C6A6C50000AA9
:10113600D8B4A0EF08F027EF08F06B50000AD8B437
:101146002BEF08F0010AD8B45CEF08F027EF08F09F
:1011560071501200010E726E69506A10D8B4B6EF63
:1011660008F0B8EF08F0C9EF08F069C0D9FF6AC007
:10117600DAFFDF30E832E832070B6C6E070E6C647C
:10118600C7EF08F0C9EF08F02CEF09F0000E726EF9
:1011960041EF09F069C0D9FF6AC0DAFFDF30E832F3
:1011A600E832070B6C6E010E6D6E6C2ADDEF08F0EF
:1011B600D8906D366C2EDBEF08F06D50FF0A6E6E20
:1011C60069C0D9FF6AC0DAFFDF50070B6F6E6F5038
:1011D600020D420EF324D96E000EF420DA6EDECF35
:1011E60070F0DDCF71F070C0D9FF71C0DAFF6E50BC
:1011F600DF1641EF09F069C0D9FF6AC0DAFFDF30B8
:10120600E832E832070B6C6E010E6D6E6C2A0EEF3B
:1012160009F0D8906D366C2E0CEF09F069C0D9FF35
:101226006AC0DAFFDF50070B6E6E6E50020D420E7B
:10123600F324D96E000EF420DA6EDECF6FF0DDCF28
:1012460070F06FC0D9FF70C0DAFF6D50DF1241EF4A
:1012560009F06B506C6E6D6A6D50000AD8B436EFAB
:1012660009F0C9EF08F06C50000AD8B4CDEF08F0C9
:10127600010AD8B4FEEF08F0C9EF08F07250120068
:10128600010E786E75507610D8A44CEF09F04EEF2B
:1012960009F052EF09F0000E786E9FEF09F0D59E27
:1012A60075C072F076C073F0A1EC09F075C069F0F4
:1012B60076C06AF0CDEC0AF075C069F076C06AF0C7
:1012C60057EC0AF020EE04F07550D9267650DA2253
:1012D600DECF69F0DDCF6AF080EC0BF075C0D9FF88
:1012E60076C0DAFFDECF1CF0DDCF1DF0F28AF29475
:1012F600D08E20EE02F07550D9267650DA22DE0422
:10130600D8A488EF09F08AEF09F08EEF09F0F28E83
:10131600F1849EEF09F020EE02F07550D926765042
:10132600DA22DF50D8A49AEF09F09CEF09F09EEF7D
:1013360009F0F28CF194D58E7850120020EE06F06A
:101346007250D9267350DA22DFB0ACEF09F0AEEF57
:1013560009F0B1EF09F0D59AE5EF09F020EE06F0B5
:101366007250D9267350DA22DFA0BCEF09F0BEEF27
:1013760009F0E5EF09F0D58A20EE06F07250D9267D
:101386007350DA22DFA6CAEF09F0CCEF09F0CFEFEF
:1013960009F0D598DDEF09F020EE06F07250D92657
:1013A6007350DA22DFB6DAEF09F0DCEF09F0DDEF91
:1013B60009F0D58856C074F0740E696E000E6A6E18
:1013C6000BEC08F012000600FACF66F0FBCF67F0D0
:1013D600F2A8F0EF09F0F2EF09F0FBEF09F0F2A244
:1013E600F7EF09F0F9EF09F0FBEF09F096EC0BF0D7
:1013F600F0A800EF0AF002EF0AF00BEF0AF0F0A2F5
:1014060007EF0AF009EF0AF00BEF0AF094EC0BF085
:10141600F2AA10EF0AF012EF0AF01BEF0AF0F2A49C
:1014260017EF0AF019EF0AF01BEF0AF0ECEC0AF0DE
:1014360067C0FBFF66C0FAFF7A9211007350741002
:10144600D8B428EF0AF02AEF0AF03BEF0AF073C08F
:10145600D9FF74C0DAFFDF30E832E832070B756E69
:10146600070E756439EF0AF03BEF0AF03FEF0AF01A
:10147600000E766E55EF0AF073C069F074C06AF01C
:101486000BEC08F0766E73C069F074C06AF073C036
:10149600D9FF74C0DAFF000EDFBE010E6B6EADEC35
:1014A60008F0766E7650120020EE06F06950D926C6
:1014B6006A50DA22DFB462EF0AF064EF0AF067EFEF
:1014C6000AF0D58682EF0AF020EE06F06950D9269A
:1014D6006A50DA22DFA472EF0AF074EF0AF082EFA4
:1014E6000AF0D59620EE03F06950D9266A50DA2222
:1014F600DF506B6ED5506B18F80B6B18D56E12005B
:1015060076EC0BF05B0E696E000E6A6E360E6B6E35
:10151600000E6C6EACEC0AF0796E5B0E6B6E000E14
:101526006C6E000E6E6E000E6D6E3CEC0BF0796EFE
:10153600060E0001826F130E816FAD0EE82EFED7E8
:10154600812FFCD7822FFAD700D085EF0AF023EF40
:1015560000F0010E706E000E6F6E69506A10D8A40E
:10156600B7EF0AF0B9EF0AF0BDEF0AF0000E706EA1
:10157600CBEF0AF0D6CF71F0D75071506D6E6E6A10
:101586006BC0D9FF6CC0DAFF6DC0DEFF6EC0DDFF39
:101596007050120020EE06F06950D9266A50DA2201
:1015A600DFA2D8EF0AF0DAEF0AF0DDEF0AF0D58C09
:1015B600EBEF0AF020EE06F06950D9266A50DA22DF
:1015C600DFB2E8EF0AF0EAEF0AF0EBEF0AF0D59C9B
:1015D6001200F2941AC064F01BC065F089EC0BF09F
:1015E6001C501D10D8B4FAEF0AF0FCEF0AF008EF11
:1015F6000BF002D808EF0BF00500FA6E1C50FD6EDA
:101606001D50FE6EFF6AFA5012001200A60EF66E0C
:10161600160EF76E000EF86E00EE38F010EE2CF097
:101626000900F5CFEEFFE550E150FAE100EE01F0DA
:10163600370EEE6AE806FDE17A907A92000183EFB2
:101646000AF077507810D8A42BEF0BF02DEF0BF0A3
:1016560032EF0BF0000E0001806F3AEF0BF077C00F
:1016660073F078C074F021EC0AF00001806F8051AD
:101676001200010E6F6E6B506C10D8A445EF0BF084
:1016860047EF0BF04BEF0BF0000E6F6E51EF0BF0C8
:101696006DC069F06EC06AF080EC0BF06F501200FE
:1016A600800F810F820F830F840F890F8A0F8B0F94
:1016B6008C0F8D0F920F930F940F950F960F60015D
:1016C600010101301701000000090A02630E776E5E
:1016D600000E786E24EC0BF0620E776E000E786EBC
:1016E60024EC0BF0120069EC0BF05B0E756E000E2D
:1016F600766E43EC09F0796E12006A50D76E69C0B7
:10170600D6FF69C01AF06AC01BF012006550D76E8A
:1017160064C0D6FF64C01AF065C01BF01200F090DA
:0C1726001200F0921200F2921200120069
:020000040020DA
:08000000FFFFFFFFFFFFFFFF00
:020000040030CA
:0E000000FF071F1FFF8385FF0FC00FE00F409B
:00000001FF
